:020000040800F2
:1000000050070020CD010008F5040008AF030008E8
:10001000F10400087D0200087707000800000000D6
:1000200000000000000000000000000019050008AA
:100030008102000800000000F70400082D060008F7
:10004000E7010008E7010008E7010008E7010008F0
:10005000E7010008E7010008E7010008E7010008E0
:10006000E7010008E7010008E7010008E7010008D0
:10007000E7010008E7010008E7010008E7010008C0
:10008000E7010008E7010008E7010008E7010008B0
:10009000E7010008E7010008E7010008E7010008A0
:1000A000E7010008E7010008E7010008E701000890
:1000B000E7010008E7010008E7010008E701000880
:1000C000E7010008E7010008E7010008E701000870
:1000D000E701000891060008E7010008E7010008B1
:1000E000E7010008E7010008E7010008E701000850
:1000F000E7010008E7010008E7010008E701000840
:10010000E7010008E7010008E7010008E70100082F
:10011000E7010008E7010008E7010008E70100081F
:10012000E7010008E7010008E7010008E70100080F
:1001300000F002F800F03AF80AA090E8000C8244BF
:100140008344AAF10107DA4501D100F02FF8AFF29C
:10015000090EBAE80F0013F0010F18BFFB1A43F0A5
:10016000010318473407000054070000103A24BF69
:1001700078C878C1FAD8520724BF30C830C144BF0C
:1001800004680C607047000000230024002500264E
:10019000103A28BF78C1FBD8520728BF30C148BFEA
:1001A0000B6070471FB51FBD10B510BD00F033F8D0
:1001B0001146FFF7F7FF00F02BFB00F051F803B4F6
:1001C000FFF7F2FF03BC00F0D8FA000009488047AF
:1001D00009480047FEE7FEE7FEE7FEE7FEE7FEE729
:1001E000FEE7FEE7FEE7FEE704480549054A064B41
:1001F000704700003106000831010008500100205E
:100200005007002050030020500300207047704723
:10021000704770477047754600F02CF8AE460500F1
:100220006946534620F00700854618B020B5FFF711
:10023000DBFFBDE820404FF000064FF000074FF015
:1002400000084FF0000B21F00701AC46ACE8C009F4
:10025000ACE8C009ACE8C009ACE8C0098D467047FD
:1002600010B50446AFF300802046BDE81040FFF70C
:10027000A6BF000000487047EC00002000BFFEE76A
:1002800070472DE9F041024600250026002000239A
:100290000024002791F803C00CF00F0591F803C06B
:1002A0000CF0100CBCF1000F03D091F802C04CEA26
:1002B000050591F800C0BCF1000F31D01468002092
:1002C0002BE04FF0010C0CFA00F3B1F800C00CEA7F
:1002D00003069E4220D183004FF00F0C0CFA03F767
:1002E000BC4305FA03FC4CEA040491F803C0BCF1DA
:1002F000280F06D14FF0010C0CFA00FCC2F814C014
:100300000AE091F803C0BCF1480F05D14FF0010C91
:100310000CFA00FCC2F810C0401C0828D1D31460AD
:10032000B1F800C0BCF1FF0F34DD546800202EE0AE
:1003300000F1080C4FF0010808FA0CF3B1F800C006
:100340000CEA03069E4221D183004FF00F0C0CFAF9
:1003500003F7BC4305FA03FC4CEA040491F803C01C
:10036000BCF1280F05D100F1080C08FA0CF8C2F80E
:10037000148091F803C0BCF1480F07D100F1080CBC
:100380004FF0010808FA0CF8C2F81080401C082849
:10039000CED35460BDE8F0810246002093680B4044
:1003A0000BB1012000E0002070470161704700BFE1
:1003B000FEE7000008B50121142000F09DF8482058
:1003C0008DF8030040F20110ADF8000069460748BF
:1003D000FFF757FF48208DF803004FF40070ADF889
:1003E000000069460248FFF74CFF08BD00080140C5
:1003F0000010014010B5044614B1012024490870D2
:100400002348007868B34FF480712248FFF7C4FF97
:1004100050B14FF400712048FFF7BEFF20B1012119
:100420001C48FFF7B9FFE0B90A2000F0CBF9002023
:10043000174908704FF480711648FFF7ADFF08B9EF
:10044000012010BD4FF400711348FFF7A5FF08B954
:100450000220F6E701210F48FFF79EFFB0B9032005
:10046000EFE74FF480710B48FFF796FF01280DD19D
:1004700041020948FFF790FF012807D101210548F3
:10048000FFF78AFF012801D1014908700020D8E751
:1004900014000020000801400010014008B50121AF
:1004A000102000F029F810208DF80300ADF80000AE
:1004B00003208DF8020069460C48FFF7E2FE102188
:1004C0000A48FFF772FF10208DF803002020ADF8D6
:1004D000000003208DF8020069460448FFF7D1FEB2
:1004E00020210248FFF761FF08BD00000010014015
:1004F00000BFFEE77047704729B1064A9269024380
:10050000044B9A6104E0034A92698243014B9A6169
:100510007047000000100240704710B500F002F86C
:1005200010BD00000CB50020019000903348006819
:1005300040F480303149086000BF3048006800F462
:10054000003000900198401C0190009818B9019863
:10055000B0F5A06FF1D12948006800F4003010B167
:100560000120009001E0002000900098012843D174
:100570002348006840F010002149086008460068E0
:1005800020F0030008600846006840F002000860A0
:100590001A4840681949486008464068486008465B
:1005A000406840F4806048600846406820F47C1051
:1005B00048600846406840F4E81048600846006813
:1005C00040F08070086000BF0C48006800F00070C8
:1005D0000028F9D00948406820F003000749486026
:1005E0000846406840F00200486000BF0348406889
:1005F00000F00C000828F9D10CBD000000100240EA
:1006000000200240042808D14FF0E021096941F0A0
:1006100004014FF0E022116107E04FF0E021096989
:1006200021F004014FF0E022116170477047000093
:1006300010B51348006840F00100114908600846F1
:100640004068104908400E494860084600680E4955
:1006500008400B4908600846006820F480200860C4
:100660000846406820F4FE0048604FF41F00886090
:10067000FFF753FF4FF000600449086010BD000011
:10068000001002400000FFF8FFFFF6FE08ED00E05A
:1006900010B540F225511D4800F03EF810B31B483C
:1006A00000F064F8C4B21A48008800F40040C8B9E9
:1006B0001748008800F4804060B10A2C03D0002065
:1006C0001349088020E01248008840F40040104997
:1006D000088019E00D2C06D10D48008840F48040B8
:1006E0000B49088010E00A480088C0F30D00094952
:1006F0000C5407480088401C0549088008460088BB
:10070000C72801DD0020088010BD0000003801402E
:10071000200000202400002070B5024600240023A1
:100720000025002040F66A16B14200D100BFC1F397
:10073000421501F01F03012606FA03F3012D02D131
:100740009689334006E0022D02D1168A334001E03B
:10075000968A33400C12012606FA04F416883440B7
:1007600013B10CB1012000E0002070BD0146888863
:10077000C0F30800704700BFFEE700BF70470000ED
:1007800010B56FF00400FFF73DFF0A4800680A4902
:10079000B0FBF1F0094908700846007800EB400111
:1007A000C1EBC0104FF6FF7101EAC0000449088098
:1007B00010BD00000000002000127A00160000208A
:1007C000180000200146114A12884A434FF0E023E6
:1007D0005A6100229A611A46126942F001021A61B6
:1007E00000BF4FF0E022106900F001021AB100F4DE
:1007F0008032002AF5D04FF0E022126922F0010287
:100800004FF0E0231A6100229A617047180000201F
:10081000FFF7B6FFFFF742FEFFF7CCFD00201C49B3
:10082000086033E00020FFF7E5FD044674B3012CB7
:1008300004D0022C0BD0032C27D113E014480068FD
:1008400008B9012000E00020114908601DE01048AF
:10085000001D006808B9012000E000200C49091DB6
:10086000086012E00A48006808B9012000E0002092
:10087000074908600748D0F8940108B9012000E052
:1008800000200349091D086000BF00BFCAE700003F
:100890009001224200002242B80800080000002017
:1008A000240000006C010008DC080008240000207F
:1008B0002C0700008801000800A24A040000000084
:1008C00000000000010203040607080901000000FF
:0C08D0000000000000000000000000001C
:0400000508000131BD
:00000001FF
