:020000040800F2
:1000000058070020CD010008690D00086F0800089E
:10001000650D00087D020008E311000800000000E3
:10002000000000000000000000000000850F000834
:10003000E502000800000000FD0D0008991000080E
:10004000E7010008E7010008E7010008E7010008F0
:10005000E7010008E7010008E7010008E7010008E0
:10006000E7010008E7010008E7010008E7010008D0
:10007000E7010008E7010008E7010008E7010008C0
:10008000E7010008E7010008E7010008E7010008B0
:10009000E7010008E7010008E7010008E7010008A0
:1000A000E7010008E7010008E7010008E701000890
:1000B000E7010008E7010008E7010008E701000880
:1000C000E7010008E7010008E7010008E701000870
:1000D000E7010008FD100008E7010008E70100083B
:1000E000E7010008E7010008E7010008E701000850
:1000F000E7010008E7010008E7010008E701000840
:10010000E7010008E7010008E7010008E70100082F
:10011000E7010008E7010008E7010008E70100081F
:10012000E7010008E7010008E7010008E70100080F
:1001300000F002F800F03AF80AA090E8000C8244BF
:100140008344AAF10107DA4501D100F02FF8AFF29C
:10015000090EBAE80F0013F0010F18BFFB1A43F0A5
:1001600001031847FC1802001C190200103A24BFB2
:1001700078C878C1FAD8520724BF30C830C144BF0C
:1001800004680C607047000000230024002500264E
:10019000103A28BF78C1FBD8520728BF30C148BFEA
:1001A0000B6070471FB51FBD10B510BD00F033F8D0
:1001B0001146FFF7F7FF01F061F800F051F803B4C2
:1001C000FFF7F2FF03BC01F00EF80000094880477A
:1001D00009480047FEE7FEE7FEE7FEE7FEE7FEE729
:1001E000FEE7FEE7FEE7FEE704480549054A064B41
:1001F000704700009D1000083101000858010020E0
:10020000580700205803002058030020704770470B
:10021000704770477047754600F02CF8AE460500F1
:100220006946534620F00700854618B020B5FFF711
:10023000DBFFBDE820404FF000064FF000074FF015
:1002400000084FF0000B21F00701AC46ACE8C009F4
:10025000ACE8C009ACE8C009ACE8C0098D467047FD
:1002600010B50446AFF300802046BDE81040FFF70C
:10027000A6BF000000487047F400002000BFFEE762
:1002800038B501244EF67D7000F0D4FB12A04EF676
:100290007D731F220A210090142000F071F9C820FC
:1002A00000F0C6FF11E04FF6FF7000F0C3FB002026
:1002B00000F0C0FB4FF4784000F0BCFB4FF4FC6052
:1002C00000F0B8FB1F2000F0B5FB201EA4F10101D7
:1002D000CCB2E8D138BD0000436F6C6F722054651A
:1002E000737400007047F8B506460F4614461D4665
:1002F0004FF6FF703B46224639460090304600F0EC
:1003000049FA4FF6FF702B46324639460090304688
:1003100000F040FA48F210406A1E93B291B2721C8B
:10032000009090B2224600F035FA44F208202B46A5
:10033000224629460090304600F02CFA48F2104040
:10034000631E9AB27B1C99B2631E009098B22B4632
:1003500000F020FA44F208202B462246394600904D
:10036000204600F017FAF8BD08B54EF67D7000F093
:1003700061FB23A04EF67D731F220A2100901020FE
:1003800000F0FEF84FF47A7000F052FF4EF67D70E8
:1003900000F050FB1EA04EF67D734FF6E0721E215A
:1003A0000090102000F0ECF81CA04EF67D731F2288
:1003B00032210090102000F0E3F81BA04EF67D7370
:1003C0004FF4784246210090102000F0D9F81AA08E
:1003D0004EF67D731F2264210090002000F0D0F8BB
:1003E00019A04EF67D734FF47842822100900020D0
:1003F00000F0C6F84FF4E16000F01AFF08BD0000FD
:10040000CEC4D7D6CFD4CABEB2E2CAD40000000050
:10041000CEB0B4F3B8B4D0CB00000000BFF1BBB68F
:10042000C2EDBFCBCBBC0000C8ABB3CCBCBCCAF5E3
:10043000D6A7B3D60000000054656C3A3131313193
:10044000313131313131310051513A313131313184
:10045000313131002DE9F04102460025002600200F
:1004600000230024002791F803C00CF00F0591F839
:1004700003C00CF0100CBCF1000F03D091F802C0C7
:100480004CEA050591F800C0BCF1000F31D01468AA
:1004900000202BE04FF0010C0CFA00F3B1F800C083
:1004A0000CEA03069E4220D183004FF00F0C0CFA99
:1004B00003F7BC4305FA03FC4CEA040491F803C0BB
:1004C000BCF1280F06D14FF0010C0CFA00FCC2F869
:1004D00014C00AE091F803C0BCF1480F05D14FF0F9
:1004E000010C0CFA00FCC2F810C0401C0828D1D343
:1004F0001460B1F800C0BCF1FF0F34DD5468002077
:100500002EE000F1080C4FF0010808FA0CF3B1F8E6
:1005100000C00CEA03069E4221D183004FF00F0C6D
:100520000CFA03F7BC4305FA03FC4CEA040491F807
:1005300003C0BCF1280F05D100F1080C08FA0CF833
:10054000C2F8148091F803C0BCF1480F07D100F144
:10055000080C4FF0010808FA0CF8C2F81080401C93
:100560000828CED35460BDE8F0810246002093688D
:100570000B400BB1012000E0002070470161704783
:100580002DE9F84F0746884693469A46DDF82890AD
:100590000097B3E099F8000080283DDA99F80060F0
:1005A0000D2E05D1009F08F110001FFA80F830E0F1
:1005B000202E03DDA6F1200086B200E000260024F4
:1005C00022E000251CE004EB06105049085C802165
:1005D0002941084040B108EB040291B27A1990B267
:1005E0005A4600F034F909E0D34507D008EB04027D
:1005F00091B27A1990B2524600F029F9681CC5B23E
:10060000082DE0DB601CC4B2102CDADB07F1080017
:1006100087B209F1010971E0002668E006EB0610D7
:100620003B4911F8100099F8001088425DD106EBA3
:100630000610374901EB4000407899F801108842D4
:1006400053D100244FE0002520E006EB061030498E
:1006500001EB4000801C10F814108020284101405C
:1006600041B108EB040291B27A1990B25A4600F0F7
:10067000EEF809E0D34507D008EB040291B27A19ED
:1006800090B2524600F0E3F8681CC5B2082DDCDBDE
:10069000002524E006EB06101D4901EB4000801CFC
:1006A000012101EB4401405C80212941084048B10F
:1006B00008EB040291B27A19083290B25A4600F05F
:1006C000C6F80AE0D34508D008EB040291B27A19C3
:1006D000083290B2524600F0BAF8681CC5B2082D34
:1006E000D8DB601CC4B2102CADDB701C86B2322E7D
:1006F00094DB09F1020907F1100087B299F80000B4
:1007000000287FF447AFBDE8F88F0000E61300082B
:10071000582100082DE9F05F074688469246994621
:10072000002531E000242BE019490A9801EBC010A4
:1007300000EB850010F804B000261DE08020304159
:1007400000EA0B0050B108EB050291B207EBC402BE
:10075000324490B2524600F07AF80BE0CA4509D014
:1007600008EB050291B207EBC402324490B24A464C
:1007700000F06DF8701CC6B2082EDFDB601CC4B23E
:10078000042CD1DB681CC5B2202DCBDBBDE8F09F6B
:10079000D71900082DE9FF4F83B0804689464946A6
:1007A000404600F0ACFA0598A0EB08050698A0EBCF
:1007B0000906002D02DB0120029003E04FF0FF301C
:1007C00002906D42002E02DB0120019003E04FF009
:1007D000FF30019076424FEA450A4FEA460BB54298
:1007E00019DDABEB0504002712E049464046109A9C
:1007F00000F02DF8002C05DBA4EB0A040198484416
:100800001FFA80F95C44029840441FFA80F87F1C6C
:10081000AF42EADD18E0AAEB0604002712E04946E1
:100820004046109A00F013F8002C05DBA4EB0B04F3
:10083000029840441FFA80F85444019848441FFA33
:1008400080F97F1CB742EADD07B0BDE8F08F70B5D4
:1008500004460D461646681C83B2601C82B22946C7
:10086000204600F023FA304600F0A2F870BD00BF29
:10087000FEE7000008B50121142000F0E3FA48204B
:100880008DF8030040F20110ADF8000069460748FA
:10089000FFF7E0FD48208DF803004FF40070ADF83D
:1008A000000069460248FFF7D5FD08BD0008014079
:1008B0000010014010B5044614B10120244908700D
:1008C0002348007868B34FF480712248FFF74DFE4B
:1008D00050B14FF400712048FFF747FE20B10121CD
:1008E0001C48FFF742FEE0B90A2000F0A1FC0020FE
:1008F000174908704FF480711648FFF736FE08B9A3
:10090000012010BD4FF400711348FFF72EFE08B907
:100910000220F6E701210F48FFF727FEB0B90320B8
:10092000EFE74FF480710B48FFF71FFE01280DD150
:1009300041020948FFF719FE012807D101210548A6
:10094000FFF713FE012801D1014908700020D8E704
:1009500014000020000801400010014008B50121EA
:10096000082000F06FFA40F20340ADF800000320C9
:100970008DF8020010208DF8030069460A48FFF741
:1009800069FD0121042000F05DFAB020ADF80000FF
:1009900003208DF8020010208DF8030069460348FB
:1009A000FFF758FD08BD0000000C014000080140A1
:1009B00010B5044610200849086002200749086065
:1009C000201200F0C1FAE0B200F0BEFA1020024995
:1009D000091F086010BD000014080140100C014000
:1009E00008B50121102000F02DFA10208DF8030029
:1009F000ADF8000003208DF8020069460C48FFF7AF
:100A000029FD10210A48FFF7B9FD10208DF80300D9
:100A10002020ADF8000003208DF80200694604484C
:100A2000FFF718FD20210248FFF7A8FD08BD0000D0
:100A30000010014070B506469F237F220021084622
:100A400000F034F92C2000F079F9002408E00025AA
:100A500003E03046FFF7ACFF6D1CA02DF9D3641CFA
:100A6000802CF4D370BD10B5FFF778FF00F00CF9BF
:100A7000112000F063F9782000F0DAFBB12000F0DB
:100A80005DF9012000F046F92C2000F043F92D20FB
:100A900000F040F9B22000F051F9012000F03AF9DD
:100AA0002C2000F037F92D2000F034F9B32000F0AD
:100AB00045F9012000F02EF92C2000F02BF92D2013
:100AC00000F028F9012000F025F92C2000F022F98F
:100AD0002D2000F01FF9B42000F030F9072000F0BD
:100AE00019F9C02000F02AF9A22000F013F9022021
:100AF00000F010F9842000F00DF9C12000F01EF97B
:100B0000C52000F007F9C22000F018F90A2000F013
:100B100001F9002000F0FEF8C32000F00FF98A2050
:100B200000F0F8F82A2000F0F5F8C42000F006F9EB
:100B30008A2000F0EFF8EE2000F0ECF8C52000F07D
:100B4000FDF80E2000F0E6F8362000F0F7F8C0209F
:100B500000F0E0F8E02000F0F1F80F2000F0DAF803
:100B60001A2000F0D7F80F2000F0D4F8182000F079
:100B7000D1F82F2000F0CEF8282000F0CBF820206C
:100B800000F0C8F8222000F0C5F81F2000F0C2F8DD
:100B90001B2000F0BFF8232000F0BCF8372000F045
:100BA000B9F8002000F0B6F8072000F0B3F80220F2
:100BB00000F0B0F8102000F0ADF8E12000F0BEF831
:100BC0000F2000F0A7F81B2000F0A4F80F2000F081
:100BD000A1F8172000F09EF8332000F09BF82C209D
:100BE00000F098F8292000F095F82E2000F092F8F7
:100BF000302000F08FF8302000F08CF8392000F021
:100C000089F83F2000F086F8002000F083F80720E4
:100C100000F080F8032000F07DF8102000F07AF852
:100C20002A2000F08BF8002000F074F8002000F07B
:100C300071F8002000F06EF87F2000F06BF82B2098
:100C400000F07CF8002000F065F8002000F062F869
:100C5000002000F05FF89F2000F05CF8F02000F02A
:100C60006DF8012000F056F8F62000F067F800203B
:100C700000F050F83A2000F061F8052000F04AF842
:100C8000292000F05BF810BD10B50120064908606E
:100C9000642000F0CDFA01200349091F08603220CA
:100CA00000F0C6FA10BD0000140C0140F0B5054676
:100CB0000C4616461F462A2000F040F8002000F09F
:100CC00029F8E8B200F026F8002000F023F8B11C63
:100CD000C8B200F01FF82B2000F030F8002000F020
:100CE00019F8E0B200F016F8002000F013F8791CB3
:100CF000C8B200F00FF82C2000F020F8F0BD30B59D
:100D000004460D462B46224629462046FFF7CEFFD5
:100D100030BD000010B504461020064908600220CE
:100D200005490860204600F00FF910200149091F0D
:100D3000086010BD14080140100C014010B50446B5
:100D4000102006490860022005490860204600F08E
:100D5000FBF810200149091F086010BD140801406C
:100D6000140C014000BFFEE770470000F8B50024F6
:100D70004EF67D70FFF75EFE1CA04EF67D734FF4BD
:100D80007842142100901020FFF7FAFB4FF47A709C
:100D900000F04EFA4EF67D70FFF74CFE00BF21E0EA
:100DA000032094FBF0F04001401D85B2032094FB2A
:100DB000F0F100FB114000EB80004FF6FF7101EAFB
:100DC000C0060D49601C085C4EF67D734FF47842F6
:100DD000294600903046FFF79DFC642000F028FA79
:100DE000601CC4B20A2CDBDBF8BD00004E756D2020
:100DF0005465737400000000150000207047000067
:100E000010B5FFF730FE4FF480600B49086000F02A
:100E100029F8FFF735FAFFF7A9FFFFF7A5FA07480A
:100E200000F080FAC82000F003FA054800F0BDFA8F
:100E3000C82000F0FDF910BD100C0140E02D0008A5
:100E4000603A000829B1064A92690243044B9A614C
:100E500004E0034A92698243014B9A6170470000A3
:100E60000010024008B54EF67D70FFF7E3FD23A0A9
:100E70004EF67D731F22002100901020FFF780FBAB
:100E800021A04EF67D734FF478421421009010207B
:100E9000FFF776FB3A23712226210F20FFF723FA72
:100EA0001DA04EF67D734FF6E072282100901020B1
:100EB000FFF766FB5823712244210F20FFF713FA36
:100EC00019A04EF67D731F22462100901020FFF7D7
:100ED00057FB7623712262210F20FFF704FA16A038
:100EE0004EF67D734FF47842642100901020FFF796
:100EF00047FB40F2DC5000F09BF908BDBFF1BBB6E8
:100F0000C2EDBFCBCBBC0000D2BABEA7B2E2CAD4FE
:100F1000B3CCD0F200000000D1D5C9ABCCEEB3E425
:100F2000B2E2CAD400000000CEC4D7D6CFD4CABE25
:100F3000B2E2CAD400000000CDBCC6ACCFD4CABE59
:100F4000B2E2CAD4000000000021082114E000F041
:100F500080021AB180220A4B1A6003E08022084BFB
:100F60001B1D1A602022064B1B1D1A601B1F1A60D6
:100F70004206100E4A1ED1B20029E8DC704700007C
:100F800010080140704710B500F002F810BD0000D5
:100F90000CB50020019000903348006840F4803088
:100FA0003149086000BF3048006800F4003000900C
:100FB0000198401C0190009818B90198B0F5A06FF5
:100FC000F1D12948006800F4003010B101200090F0
:100FD00001E0002000900098012843D123480068D8
:100FE00040F01000214908600846006820F0030026
:100FF00008600846006840F0020008601A4840682F
:10100000194948600846406848600846406840F40E
:10101000806048600846406820F47C1048600846BC
:10102000406840F4E81048600846006840F080706E
:10103000086000BF0C48006800F000700028F9D07C
:101040000948406820F003000749486008464068A6
:1010500040F00200486000BF0348406800F00C0008
:101060000828F9D10CBD0000001002400020024009
:10107000042808D14FF0E021096941F004014FF044
:10108000E022116107E04FF0E021096921F004013D
:101090004FF0E022116170477047000010B513480F
:1010A000006840F001001149086008464068104996
:1010B00008400E494860084600680E4908400B4940
:1010C00008600846006820F48020086008464068F0
:1010D00020F4FE0048604FF41F008860FFF753FFC4
:1010E0004FF000600449086010BD0000001002408D
:1010F0000000FFF8FFFFF6FE08ED00E010B540F23B
:1011000025511D4800F03EF810B31B4800F064F86C
:10111000C4B21A48008800F40040C8B917480088D3
:1011200000F4804060B10A2C03D0002013490880ED
:1011300020E01248008840F400401049088019E07F
:101140000D2C06D10D48008840F480400B490880E2
:1011500010E00A480088C0F30D0009490C54074804
:101160000088401C0549088008460088C72801DD22
:101170000020088010BD0000003801402800002039
:101180002C00002070B5024600240023002500201A
:1011900040F66A16B14200D100BFC1F3421501F01A
:1011A0001F03012606FA03F3012D02D1968933406D
:1011B00006E0022D02D1168A334001E0968A3340C0
:1011C0000C12012606FA04F41688344013B10CB14F
:1011D000012000E0002070BD01468888C0F30800AF
:1011E000704700BFFEE700BF7047000010B56FF00A
:1011F0000400FFF73DFF0A4800680A49B0FBF1F020
:10120000094908700846007800EB4001C1EBC010A6
:101210004FF6FF7101EAC0000449088010BD0000CC
:101220000000002000127A00200000202200002090
:101230000146114A12884A434FF0E0235A610022C6
:101240009A611A46126942F001021A6100BF4FF01A
:10125000E022106900F001021AB100F48032002A85
:10126000F5D04FF0E022126922F001024FF0E023A6
:101270001A6100229A61704722000020FFF70EFFDA
:10128000FFF7B4FFFFF7ACFBFFF7F4FAFFF7B8FD89
:101290003DE00020FFF70EFB0446002C37D0012C68
:1012A00004D0022C0ED0032C30D119E0184800686D
:1012B00008B9012000E0002015490860154800F039
:1012C00074F823E01248001D006808B9012000E00E
:1012D00000200F49091D08600F4800F066F815E06E
:1012E0000B48006808B9012000E0002008490860A8
:1012F0000A48D0F8940108B9012000E00020044910
:10130000091D0860064800F050F800BF00BFC0E7A4
:1013100090012242603A000860DA00080000224290
:10132000607A01082DE9F04707464FF6FF70FFF796
:1013300081FB002635E0002530E006EB860C4FEA05
:10134000CC0C0CF1270C1FFA8CF305EB850C4FEA43
:10135000CC0C0CF1270C1FFA8CF206EB860C4FEA32
:10136000CC4C4FEA1C4105EB850C4FEACC0C0CF140
:10137000020C1FFA8CF0FFF799FC00240AE017F822
:10138000149007EB440090F8018049EA0820FFF729
:101390000FFB641CB4F5C86FF1DB6D1C032DCCDBB7
:1013A000761C042EC7DBBDE8F0872DE9F041054629
:1013B0004FF6FF70FFF73EFBA02380220021084676
:1013C000FFF774FC002409E015F8147005EB4400E5
:1013D000467847EA0620FFF7EBFA641CB4F5A04F05
:1013E000F2DBBDE8F081000000000000000000001A
:1013F000000000000000001010101010101010105D
:1014000000001010000000006C6C2424000000009C
:101410000100000000000024242424FE484848481D
:10142000FC909090900000103C5492905038141210
:101430001292547810000000225C94A848101024E6
:101440002A5254880000000030484850206E5494BE
:101450008C888A74000000003030101000000000FA
:1014600000000000000000040810102020202020B0
:1014700020101008040000804020201010101010D0
:101480001020204080000000000010543810385414
:1014900010000000000000000010101010FE1010DE
:1014A000101000000000000000000000000000001C
:1014B00000001010200000000000000000FE0000EE
:1014C000000000000000000000000000000000001C
:1014D0000000101000000000040408081010202074
:1014E00040408080000000003844828282828282F4
:1014F000828244380000000010701010101010108C
:101500001010107C00000000384482820408102073
:10151000408284FC00000000384482020438040247
:101520000282443800000000040C141424244444B3
:10153000FE04040E00000000FC808080B8C482021B
:1015400002828478000000003C428280B8C482821B
:1015500082824438000000007E42820404080808A9
:101560001010101000000000384482824438448279
:101570008282443800000000384482828282463AE7
:10158000028244380000000000001010000000003B
:10159000101000000000000000001010000000000B
:1015A0000010102000000000000006186080601885
:1015B000060000000000000000000000FE0000FE29
:1015C00000000000000000000000C0300C020C30E1
:1015D000C00000000000003844828202040810109D
:1015E00010001010000000003844829AAAAAAAAA8B
:1015F000AA9680423C00000010101028282844447D
:101600007C4444EE00000000FC424242427C4242E4
:10161000424242FC000000003C4482808080808086
:101620008282443800000000F84442424242424272
:10163000424244F800000000FC444240447C4440E4
:10164000404244FC00000000FC444240447C4440D2
:10165000404040F000000000344C828080808E8446
:1016600084844C3400000000EE444444447C4444F0
:10167000444444EE000000007C10101010101010C4
:101680001010107C000000003E0808080808080838
:101690000888887000000000EE44484850605048B8
:1016A000484444EE00000000E040404040404040DC
:1016B000404244FC00000000C6446C6C6C5454541E
:1016C000444444EE00000000CE4464646454544C2E
:1016D0004C4C44E4000000003844828282828282C2
:1016E0008282443800000000F8444242424478407C
:1016F000404040E0000000003844828282828282C2
:1017000082BA443C02000000F04844444448704817
:10171000444444E6000000003C44828040300C0217
:1017200002824478000000007C54921010101010C7
:101730001010103800000000EE4444444444444477
:101740004444443800000000EE444444442828281F
:101750002810101000000000EE4454545454545407
:101760002828282800000000EE44442828101028CB
:10177000284444EE00000000EE44442828281010BD
:1017800010101038000000007E448408081020204B
:10179000408284FC0000001C10101010101010106B
:1017A000101010101C000000EE445454FE54545409
:1017B0002828282800000070101010101010101099
:1017C000101010107000003048840000000000006D
:1017D0000000000000000000000000000000000009
:1017E00000000000FE00004020000000000000009B
:1017F0000000000000000000000000007884047C6D
:1018000084848C7600000000C0404040586442420E
:10181000424264580000000000000000384480800C
:1018200080804438000000000C040404344C84849C
:1018300084844C360000000000000000788484FCA2
:10184000808084780000000018242020F8202020C8
:101850002020207000000000000000003A4444787E
:10186000807C82827C000000C04040405864444438
:10187000444444EE0000000010100000301010102E
:101880001010103800000000101000003010101070
:101890001010109060000000C04040405C48506054
:1018A000504844EE000000003010101010111010CD
:1018B000101010390000000000000000ACD292921D
:1018C000929292D6000000000000000058E44444C8
:1018D000444444EE000000000000000038448282CE
:1018E000828244380000000000000000D8644242B8
:1018F00042645840E000000000000000364C848440
:10190000844C34040E000000000000006C302020E5
:101910002020207000000000000000007888846013
:10192000188444780000000000202020F8202020A7
:10193000202024180000000000000000C64242429F
:101940004242463A0000000000000000EE444428F5
:10195000282810100000000000000000EE4444544D
:10196000542828280000000000000000EE44281041
:10197000102844EE0000000000000000EE4444285F
:10198000281010A0C0000000000000007E44881055
:10199000204284FC0000000C101010101060101089
:1019A000101010100C00001010101010101010105B
:1019B00010101010100000C020202020201820201F
:1019C00020202020C00000000000000000728C00D9
:1019D0000000000000000000000000001FE0000008
:1019E0003FF000003FF000001FE000018006000310
:1019F000C00F0003C00F0003C00F0003C00F00039F
:101A0000C00F0003C00F0003C00F0003C00F00038E
:101A100000030000000000000000000000000003C0
:101A200000030003C00F0003C00F0003C00F00033A
:101A3000C00F0003C00F0003C00F0003C00F00035E
:101A4000C00F0001800600001FE000003FF0000012
:101A50003FF000001FE00000000000000000000058
:101A6000008000000180000003800000078000006B
:101A7000078000000780000007800000078000004A
:101A8000078000000780000007800000078000003A
:101A900001800000000000000000000000000000C5
:101AA0000180000007800000078000000780000020
:101AB000078000000780000007800000078000000A
:101AC0000780000007800000038000000180000004
:101AD0000080000000000000000000001FE0000087
:101AE0003FF00000FFF00001FFE0000000060000F2
:101AF000000F0000000F0000000F0000000F0000AA
:101B0000000F0000000F0000000F0000000F000099
:101B10001FE300007FF800007FF800001FE00003D3
:101B200000000003C0000003C0000003C000000369
:101B3000C0000003C0000003C0000003C000000399
:101B4000C0000001800000001FF000003FF800000E
:101B50003FFC00001FFE000000000003FF800001AA
:101B6000FFC00000FFC000007F80000000180000E0
:101B7000003C0000003C0000003C0000003C000075
:101B8000003C0000003C0000003C0000003C000065
:101B90007F8C0001FFE00001FFF000007F8000006B
:101BA000000C0000003C0000003C0000003C000075
:101BB000003C0000003C0000003C0000003C000035
:101BC000003C0000001800007F800000FFC0000102
:101BD000FFC00003FF8000000000000000000002C2
:101BE000000100030003000380070003C00F00038F
:101BF000C00F0003C00F0003C00F0003C00F00039D
:101C0000C00F0003C00F0003C00F0003C00F00038C
:101C10001FE300007FF800007FFC00001FE00000D1
:101C200000030000000F0000000F0000000F000084
:101C3000000F0000000F0000000F0000000F000068
:101C4000000F0000000F000000070000000300006C
:101C50000001000000000000000000001FFC000068
:101C60003FF800003FF000001FE00001800000038B
:101C7000C0000003C0000003C0000003C000000358
:101C8000C0000003C0000003C0000003C000000348
:101C90001FE000007FF800007FF800001FE0000058
:101CA00000030000000F0000000F0000000F000004
:101CB000000F0000000F0000000F0000000F0000E8
:101CC000000F0000000600003FE000007FF0000071
:101CD000FFF00001FFE00000000000001FFC00001A
:101CE0003FF800003FF000001FE00001800000030B
:101CF000C0000003C0000003C0000003C0000003D8
:101D0000C0000003C0000003C0000003C0000003C7
:101D10001FE000007FF800007FFC00001FE00003D0
:101D200000030003C00F0003C00F0003C00F000337
:101D3000C00F0003C00F0003C00F0003C00F00035B
:101D4000C00F0001800600001FE000003FF000000F
:101D50003FF000001FE0000000000007FFE000036C
:101D6000FFC00001FF880000FF18000000380000DD
:101D70000078000000780000007800000078000083
:101D80000078000000780000007800000078000073
:101D9000001800000000000000000000000000002B
:101DA00000180000007800000078000000780000B3
:101DB0000078000000780000007800000078000043
:101DC00000780000007800000038000000180000D3
:101DD0000008000000000000000000001FE00000FC
:101DE0003FF000003FF000001FE00001800600030C
:101DF000C00F0003C00F0003C00F0003C00F00039B
:101E0000C00F0003C00F0003C00F0003C00F00038A
:101E10001FE300007FF800007FFC00001FE00003CC
:101E200000030003C00F0003C00F0003C00F000336
:101E3000C00F0003C00F0003C00F0003C00F00035A
:101E4000C00F0001800600001FE000003FF000000E
:101E50003FF000001FE00000000000001FE0000055
:101E60003FF000003FF000001FE00001800600038B
:101E7000C00F0003C00F0003C00F0003C00F00031A
:101E8000C00F0003C00F0003C00F0003C00F00030A
:101E90001FE300007FF800007FFC00001FE000004F
:101EA00000030000000F0000000F0000000F000002
:101EB000000F0000000F0000000F0000000F0000E6
:101EC000000F0000000600001FE000003FF00000CF
:101ED0007FF00000FFE000000000000000000000B4
:101EE00000000000000000000000000000000000F2
:101EF00000000000000000000000000000000000E2
:101F000000000000000000000000000000000000D1
:101F100000000000000000000000000000000000C1
:101F20000000000000000000000000007800000039
:101F300078000000780000007800000078000000C1
:101F40007800000000000000000000000000000019
:101F50000000000000000000000000000000000081
:101F60000000000000000000000000000000000071
:101F70000000000000000000070000000F800000CB
:101F80000F8000000F80000007000000000000002C
:101F90000000000000000000000000000000000041
:101FA00000000000070000000F8000000F8000000C
:101FB0000F8000000700000000000000000000008B
:101FC0000000000000000000000000000000000011
:101FD0000000000000000000000000000000000001
:101FE0000000000000000007C006000FE00600002F
:101FF000000C00301818003018180030183000306D
:10200000183000301860003008C00007C0C0000F52
:10201000E080000000000000000FE0000607C000A4
:10202000063018000C3018000C301800183018005A
:10203000303018003030180060000000C00FE000A1
:10204000C007C00000000000000000000000000009
:102050000000000000000000000000000000000080
:102060000000000000000000000000000000000769
:1020700000E0000887FC00088E0300089801800734
:1020800018008000300000003000000070000000E8
:1020900060000000600000006000000060000000C0
:1020A0006000000070000000300000003000000000
:1020B00038000000180100000C03000007FC0000BD
:1020C00001F000000000000000000000000000001F
:1020D0000000000000000000000000000000000000
:1020E00000000000000000000000000000000000F0
:1020F00000000000000000000000000000000000E0
:1021000000000000000000000000000000000000CF
:10211000000000003FF000007FF000007FE00000C2
:10212000FFC00000000000000000000000000000F0
:10213000000000000000000000000000000000009F
:10214000000000000000000000000000000000008F
:102150000000000000000000B5E7020002000200DD
:102160007FF0421042107FF0421042107FF0420098
:102170000208020801F800000000D7D37FF0002019
:102180000040008001000200FFF80200020002008F
:102190000200020002000E0000000000C8AB0100B7
:1021A000010002800440082010102FE8C106010041
:1021B00001001FF00100010001007FFC0000B6AF2C
:1021C000004000407C40004001FC0044FE442044AC
:1021D0002044208448844484FD04450402280410DB
:1021E000BCBC10201020102013FEFC20102010205A
:1021F00015FC18843088D048105010201050518899
:102200002606CAF501000120011001107FFC0380A1
:102210000540054009201110210841040102010078
:1022200001000100D2BA0080404027F8114001406F
:102230008278424816A81AD02350222042204250C9
:10224000028800000000BEA73FE020203FE02020E1
:102250003FE00000FDF885088508FDF88508850841
:10226000FDF8850800000000B2E200084F882888C9
:102270000AA88AA84AA80AA82AA82AA8422845087B
:1022800084888888103800000000CAD44050204854
:1022900020400FF80040E04027402240224022200A
:1022A0002A2833A82E18000800000000B3CC000034
:1022B0001BF0E210221023F0F800200033F06880B9
:1022C0006080A3F02080208027F800000000D0F27A
:1022D000020001003FF820002FF020202240218042
:1022E0003FF82088209040804080838000000000DC
:1022F000D1D5200010F87E20444028F87E8848A8D8
:1023000050A864A848A872A88450188861080000E2
:102310000000C9AB100010003FE0404080807FF01B
:102320004210421042107FF04000400840083FF841
:1023300000000000CCEE20802FF8208027F0F41061
:1023400027F0241027F0241027F03410CFF80220B3
:10235000041000000000B3E404000200FFF80800CD
:10236000104020207FF008900880088008801088A6
:102370002088C07800000000CEC4040002000200E3
:10238000FFF810401040088008800500020005009A
:1023900008803060C01800000000D7D6040002009A
:1023A000FFF8800880083FC0008001000200FFF8AD
:1023B0000200020002000E0000000000CFD43FE047
:1023C000202020203FE0202020203FE0088048906F
:1023D000289028A008800880FFF800000000CABEEE
:1023E00000003FE0000000000000FFF80200124083
:1023F000122022104208820802000E000000000095
:10240000CDBC7FF84008440847C848485488430872
:102410004CC8733840884C08430840887FF8000057
:102420000000C6AC00802080208020803FF020008B
:10243000200020003FC020402040204040408040FD
:1024400000000000B4A520403840484091F07D5085
:10245000555055507D5055F054407C40545057F8DD
:102460008C0800000000C3FE2220222027F8FA205A
:1024700027F0241027F03410E7F020802FF82140B7
:102480002220EC1800000000CAE440804140F22005
:1024900044108BE8A000F78824A827A834A8E7A850
:1024A00024A8248825B800000000C8EB0800040018
:1024B00004000200020005000500088008801040AA
:1024C000104020204010800800000000C8AB02002F
:1024D00002000500088010402020DFD80200020022
:1024E0001FC0020002000200FFF800000000B3CC91
:1024F00000001BF0E210221023F0F800200033F05F
:1025000068806080A3F02080208027F80000000011
:10251000BCBC208020802080F7F02080208027E035
:102520003220E2202140208021402220EC180000AF
:102530000000CAF50200024002200200FFF8070076
:102540000A800A8012402220421082080200020003
:1025500000000000D6A702000200FFF802000200FF
:102560007FE010201040088005000200050018C020
:10257000E03800000000B3D62080208023F0F880EF
:10258000208027F828203020E7F820202220212052
:102590002020E0E000000000D7A8020002007FF049
:1025A00004000400FFF8080010003FE00020004095
:1025B0001C800300008000000000D7A201004080C2
:1025C000200017F0008080804080008017F010808D
:1025D0002080208040804FF800000000C5FA204095
:1025E00024402440F4482450276024403440E440F0
:1025F0002440244025482648E43800000000B7A2C3
:1026000002002220221044007FF8040008000FE09E
:10261000142024404280810006C0383800000000A9
:10262000B3C900A0009000807FF8408040907C906B
:10263000449044A044A0444858A84118820800008F
:102640000000B9A601000100F90023F021102110BB
:102650002110211021103910C2100210041008603E
:1026600000000000D2C60000002000780CE47904CD
:10267000516810307E6019981A3C2FE448E40838FD
:10268000003000600000D1A100000120012003FC07
:1026900062203420042003FC240021B021202220C9
:1026A000323E18000FE00000D4F10000000010FCE2
:1026B0001304110C3DF8703E10D015907CF0503E84
:1026C00018101BFE023000200000CFEE00000000BA
:1026D00003FE00607C4012FC110411061136112427
:1026E0001F44794400C0009C01860000C4BF000064
:1026F00000000FE03C18200820043E046004600441
:102700007E046004200C20081FF001800000B6CC7D
:102710000000080011FC103E3EF82D8C29044904ED
:1027200009043E8C50FC10881EC811FC100E0000DD
:10273000B0B400000040006012FE13023A427F4431
:1027400010C41BFE3C987190113011A00078004C11
:102750000000C8B70000004000F878C41F8C313872
:1027600021EC2126413A7DE2272225FA3D2601244B
:1027700001040000B6A80000010001705FFC7004B5
:1027800020042FF801001100113821C431003F004E
:1027900063E040380000B3A400000000081808609F
:1027A00008C00B001E00181C7FF01000118010E004
:1027B0001838098E0F000000B0B40000004000601F
:1027C00012FE13023A427F4410C41BFE3C987190E3
:1027D000113011A00078004C0000B7B500000000D7
:1027E00007F80600240014F8078C040424082618AF
:1027F00025F0647C64C220801FC00000BBD80000AC
:1028000000001FF030182008278C2C44284428444E
:102810002CC427842004300C1FF803800000C2ED74
:1028200000007FE0002000201020102010201FFC5E
:10283000000400040004FFE4000400040028001069
:102840000000000000000000000000000000000088
:102850000000000000000000000000000000000078
:102860000000B4BF000000000000020100063FC0ED
:102870000C3FE01803001002003336603726203E7C
:1028800066301C643018642031FEE03F1FC01C0C11
:1028900000000C000704003E07F00001C00000002B
:1028A000000000000000000000000000C9AB0000B4
:1028B0000000000001FE0003E3000703000C03001A
:1028C0001C3F003BFFC03F30600C30200C30200C20
:1028D00010200C10600FFFC0083F00080000080027
:1028E000600E3FE007FC0000000000000000000058
:1028F000000000000000CCEE00000000000000031B
:102900000000FFE00C07F00C06000CFF803FF0E039
:102910001FC0600CFE300CCC3004F83004FF2004E3
:10292000C0201FFE603EC06001FFF001FFF00060AC
:1029300060004000000000000000000000000000F7
:10294000B3E400000000000000200000300007FF9A
:10295000F03FFFE00300000601800C01800801C089
:102960001807E00FFE7007E00002060006040004EE
:1029700004000404000C06700C07E00000000000D6
:1029800000000000000000000000B2E200000000B3
:10299000000000003039FC301FCC300706B00F06B5
:1029A000F01907B03137B03136F01F27F00167F06A
:1029B00001E5F001E1F00041F00CF8B03CD8300046
:1029C0008C3000803000000000000000000000009B
:1029D00000000000CAD40000000000000803600CE2
:1029E00003700C0330003FE0003F800801003C0111
:1029F00080047F80047D800C00800C10C00C10C00F
:102A00000C18400C1C600F7E600670300000300017
:102A10000000000000000000000000000000CEC424
:102A200000000000C00000E00000700001FFE01F97
:102A3000FFC0180100000300000600000E00001C8B
:102A4000000E180007300001E00000F00000FC005C
:102A5000018F000303C00201E0000000000000003D
:102A60000000000000000000D7D6000000000000B9
:102A7000002000003F0031FFE03FC0203800303030
:102A8000FE2033C660100200000C00001800001881
:102A900000000C0007FFE03FFFE0000400000C0016
:102AA000000C00000000000000000000000000001A
:102AB0000000CFD400000000000007FF000F03C09B
:102AC0000C00401FF8601800600800400E01C007AD
:102AD000FF000000000184000184001987800F8C32
:102AE000E0078C2000CC0003FFE01FFFC0000000C7
:102AF000000000000000000000000000CABE00004E
:102B0000000000000E00001FFFC0007FE00000007A
:102B1000000000000000000000003FC03FFFE00098
:102B200030000030000030000613000C13C00C18F9
:102B3000F018180018180000000000000000000045
:102B4000000000000000CDBC00000000000007FFF6
:102B5000000F03801CC0C019FC6011C66033062042
:102B600033E63036FF30301FF030703030FC303319
:102B70009F3036002010E060187C400E01C003FF3B
:102B8000000038000000000000000000000000000D
:102B9000C6AC000000000000081800180800180863
:102BA00000180800180C201FFFF01FF80018000084
:102BB00010000010F8001FFE001E0300100300109C
:102BC00003001003001003001802000000000000C2
:102BD00000000000000000000000CFD40000000052
:102BE000000007FF000F03C00C00401FF860180032
:102BF000600800400E01C007FF00000000018400D3
:102C00000184001987800F8CE0078C2000CC000322
:102C1000FFE01FFFC00000000000000000000000F7
:102C200000000000CABE0000000000000E00001FEF
:102C3000FFC0007FE0000000000000000000000076
:102C400000003FC03FFFE0003000003000003000D7
:102C50000613000C13C00C18F01818001818000008
:102C60000000000000000000000000000000B4A50B
:102C70000000000000000601800FC1801E6180304E
:102C80004FC020CFE0078D303FC9303379303379E2
:102C9000303FFB3037FF203267E03FE3803FE3C047
:102CA0003263603267F0304FB00000000000000077
:102CB0000000000000000000C3FE00000000000053
:102CC0000030C000FFF00C79C00C1F800C7FE03F8B
:102CD000E0600CC0300CFC3004C03007C0301E6017
:102CE000603C3FC0041C00047FE000FFE00030C0F7
:102CF0000060600000000000000000000000000014
:102D00000000CAE40000000000000C03800C0FC0AB
:102D1000081C703F70001F9FC0101FC010000036BD
:102D20007C3017E6301FE3B0067FB00277F007E390
:102D3000F03F7FF01336F00326300326300000000A
:102D4000000000000000000000000000C8EB0000D0
:102D50000000000006000003800001C00000E00049
:102D600000700000780000CC0000C6000183000362
:102D700001800700C00600E00C0070180030180049
:102D80000030000000000000000000000000000013
:102D90000000000000000000000000000000000033
:102DA0000000000000000000000000000000000023
:102DB0000000000000000000000000000000000013
:102DC0000000000000000000000000000000000003
:102DD00000000000000000000000000000000000F3
:102DE000DBDE5DEF5DEF7DEF5DEF5DEF5DEF5DEFF6
:102DF0005DEF5DEF5DEF5DEF5DEF5DEF5DEFBEF70A
:102E0000FFFFDEFF38C6928C8E6B6E6B107C96AD2A
:102E10003CE7FFFFFFFF7DEF5DEF5DEF5DEF5DEFF7
:102E20005DEF5DEF5DEF5DEF5DEF5DEF5DEF5DEF42
:102E30005DEFFFFFFFFFFFFFFFFFFFFFFFFFFFFF54
:102E4000FFFFFFFFFFFFFFFFFFFFFFFFFFFF5DEF44
:102E5000159D4F636C420A32882946192519452170
:102E6000E8318E6B18BEFFFFFFFFFFFFFFFFFFFF84
:102E7000FFFFFFFFFFFFFFFFFFFFFFFFFFFFFFFF62
:102E80005DEFFFFFFFFFFFFFFFFFFFFFFFFFFFFF04
:102E9000FFFFFFFFFFFFFFFFFFFFDFFFF59C0F536B
:102EA000104B51530F4B6C3AE93167212519E4104F
:102EB000A308620083088A4A59C6FFFFFFFFFFFF8D
:102EC000FFFFFFFFFFFFFFFFFFFFFFFFFFFFFFFF12
:102ED0005DEFFFFFFFFFFFFFFFFFFFFFFFFFFFFFB4
:102EE000FFFFFFFFFFFFFFFF1CE74F5BB363B87CF3
:102EF000F56311434D32EA29882126190519051970
:102F000004110411E4108300A308728CFFFFFFFF7B
:102F1000FFFFFFFFFFFFFFFFFFFFFFFFFFFFFFFFC1
:102F20005DEFFFFFFFFFFFFFFFFFFFFFFFFFFFFF63
:102F3000FFFFFFFFFFFFDBDE4B3AF042356C544BE7
:102F4000B1322E2AEB21A9216719051904110411A8
:102F50000411041104110519E4104200AF73FFFFBE
:102F6000FFFFFFFFFFFFFFFFFFFFFFFFFFFFFFFF71
:102F70005DEFFFFFFFFFFFFFFFFFFFFFFFFFFFFF13
:102F8000FFFFFFFF5DEF09324C32104B8F324F2AAB
:102F90002E2ACC1989198921471905190411041100
:102FA000C410C410041104110411E410420031844F
:102FB000FFFFFFFFFFFFFFFFFFFFFFFFFFFFFFFF21
:102FC0005DEFFFFFFFFFFFFFFFFFFFFFFFFFFFFFC3
:102FD000FFFFFFFFEC5247194C320B2AEC21EC218A
:102FE0000C22915BEE4A061126190419E410E41034
:102FF000A7296621A308051904110411E410820011
:10300000F7BDFFFFFFFFFFFFFFFFFFFFFFFFFFFF1A
:103010005DEFFFFFFFFFFFFFFFFFFFFFFFFFFFFF72
:10302000FFFF35A58308882188218921AA218A21CB
:103030006B42718CFFFF728C83080411C408294213
:10304000FBDE5DEFEC5A83080411041104118308C0
:10305000E831DFFFFFFFFFFFFFFFFFFFFFFFFFFF85
:103060005DEFFFFFFFFFFFFFFFFFFFFFFFFFFFFF22
:10307000BEF7C731C4102519261947194719A829C1
:103080008A52284A55ADFFFFE831A30805194D6B58
:103090004D6BFFFF7DEF4521C41004110411041195
:1030A000620076ADFFFFFFFFFFFFFFFFFFFFFFFFA7
:1030B0005DEFFFFFFFFFFFFFFFFFFFFFFFFFFFFFD2
:1030C00096B562000411041905110519C4088B4A4C
:1030D000B6B55DEFF7BDFFFF8E6B62002942AA5ABD
:1030E0000842FFFFFFFFCC528308041104110411B2
:1030F000A308AD52FFFFFFFFFFFFFFFFFFFFFFFF32
:10310000BEF7FFFFDFFFDBDEFFFFFFFFFFFFFFFF7D
:103110004E636200041104110411E41062008E6316
:10312000FFFFFFFFFFFFFFFFCF730100F39C2C6346
:1031300096B5FFFFFFFF2D5B8300041104110411FE
:10314000E41067213DEFFFFFFFFFFFFFFFFFFFFFE1
:10315000B7B576AD7DEFCB52B394FFFFFFFFDFFF36
:10316000E831A3080411041104110411A308494211
:10317000FFF7FFF7FFFFFFFF6A4A01007284FFFFBE
:10318000FFFFFFF7DFEF093AA30804110411041150
:103190000411051118BEFFFFFFFFFFFFFFFFFFFF38
:1031A000F07B6200E831C731410035A5FFFF5DEFDC
:1031B0004621C4100411041104110411E410A308E1
:1031C000769DFFF7FFFFB7ADA308A308C7319EE7C1
:1031D000FFF7FFF776A5A308E4100411041104110A
:1031E0000511051135A5FFFFFFFFFFFFFFFFFFFFE3
:1031F000DBDEA7298300C410C410C4101CE79EEFB7
:103200000511E41004110411041104110419C40877
:10321000E510D16BD16BC5086400A50843002B32C3
:10322000779DB3842519C4100411041104110411ED
:1032300025192609359DFFFFFFFFFFFFFFFFFFFF59
:10324000FFFFAF7362000419051982000D5B8E9BAE
:1032500062100511041104110419E4108500051110
:10326000C439815A407B229C43AC03A4839B827265
:103270008249C218A400C500E410041904110519FC
:1032800047196711EC5ABEFFFFFFFFFFFFFFFFFF6B
:10329000DFFFDBD6C410E41004110511A41801C02F
:1032A0008388E40005190419C5084421438323D504
:1032B00042FEE4FE27FF07FFA4FE64FE03FEA3FD1B
:1032C000E2FC42EC83B32462E510C4080419261919
:1032D000A81987210090D3BCFFFFFFFFFFFFFFFF6E
:1032E0005DEFFFFFF07B420005190511832801D037
:1032F00044F8A348E400C508445A02EDE2FD02FE8A
:1033000066FE74FFB8FF73FFE7F6A6F645F6A4F570
:10331000C3FC62FCC2FCC2FCE3CBC44906118819A1
:103320008701A49001F8EC9AFFFFFFFFFFFFFFFF6A
:103330005DEFFFFF9EF7E83183000509824001C081
:1033400023F885F0A348A400445A02FD23CCC2DC34
:1033500004FE28FE48F646F624F6E4F564FDE3FC98
:1033600062FCC2FC02E402DCE2FCA47A48016701D0
:10337000C47824F802F884B07DE7FFFFFFFFFFFF69
:103380005DEFFFFFFFFFDBDE2519A300C43802E07D
:1033900022D844F8A6F8A4786300432183728339C5
:1033A000829B21F561FD22FDE2FCA2FC42FC42FC75
:1033B00042FC22AB8341C392045226012519A498F2
:1033C00044F823F802F8A4D09EEFFFFFFFFFFFFFB1
:1033D0005DEFFFFFFFFFFFFF9AD68729A50043B8E7
:1033E00022F823E065F8E8F807C983484200A30003
:1033F00084006329A27A62B3A2CB62D302BB828A21
:103400008339A400E500E500E508C46064D844F809
:1034100024F823F802F88388DBC6FFFFFFFFFFFFD5
:103420005DEFFFFFFFFFFFFFFFFF3DE7505B083150
:1034300023E843F844F065F809F9ABF989D1068926
:10344000A34842180200420061008200620062004C
:103450008300A320C450A58885D865F844F844F8B3
:1034600023F823F803D08210C7295DEFFFFFFFFF89
:103470005DEFFFFFFFFFFFFFFFFFFFFFFFFF6C326E
:10348000A53802D823F865F866F8A7F84AF90CFAC7
:103490004DFA4CEA0BD2A9B968B147A927B107B9CF
:1034A00007D1E7E8C7F8A7F865F865F844F823F806
:1034B00003F802D0A3280509C408EC5AFFFFFFFF58
:1034C0005DEFFFFFFFFFFFFFFFFFFFFFFBDE0519C3
:1034D000C400A741E6C003F886F8A7F887F886F885
:1034E000C7F829F98AF9ABF9ABF98BF96AF929F927
:1034F00008F9C7F8A6F886F865F864F823F802F02A
:1035000006B12529E400E41025192519149DFFFFB3
:103510005DEFFFFFFFFFFFFFFFFFFFFF96AD6200C4
:1035200082083595BACE8BA244D025F887F8A7F843
:10353000C7F8A7F887F886F886F886F887F8A7F816
:10354000A7F8A6F885F865F864F824F064B80D9338
:10355000BBB6CF6383080411E4106621493A5DEFDE
:103560005DEFFFFFFFFFFFFFFFFFFFFFD394420070
:10357000E410BBCEFFFFBEE776B5CCAA07C145E09D
:1035800045F846F866F886F886F886F886F865F80D
:1035900045F865F865E844D043A8018882903CD797
:1035A000FFEF559583080411041105194619B394CA
:1035B0005DEFFFFFFFFFFFFFFFFFFFFFB394410041
:1035C00086215DDFFFFFFFFFFFFFDFE77AC6D3B491
:1035D0004EB32AC268D1E6E0A6E8A5E8A5E8E6D899
:1035E00088C906A922A802A800A000C800D8F7E54B
:1035F000FFE7F8ADC410E4100411E41005118B4A84
:103600005DEFFFFFFFFFFFFFFFFFFFFF55A541003D
:10361000A7295DDFFFF7FFFFFFFFFFFFFFFFFFFFB2
:10362000FFEF7DDFDBCE59CEF8CDD7CDF7C579CE14
:10363000FBBEABA203F045F842D043E800F072D4E1
:10364000FFDF39AEE410E4100411E41005118729FE
:103650005DEFFFFFFFFFFFFFFFFFFFFF59CE830876
:1036600046211CD7FFF7FFFFFFFFFFFFFFFFFFFF14
:10367000FFFFFFFFFFFFFFFFFFFFFFFFFFFFFFFF5A
:10368000FFEF8BBA04F845F862E044F000F88EDBF7
:10369000FFDFF8A5C410E410E4100411E4102519AC
:1036A0005DEFFFFFFFFFFFFFFFFFFFFFBEF7872973
:1036B000830839B6FFF7DFF7FFFFFFFFFFFFFFFFCC
:1036C000FFFFFFFFFFFFFFFFFFFFFFFFFFFFFFFF0A
:1036D000BEE74ABA03F845F864F844F800F86EE328
:1036E000FFD7F48C83080411E410E410E4100519EA
:1036F0005DEFFFFFFFFFFFFFFFFFFFFFFFFFEF7328
:1037000000007284FFEFBEEFDFFFFFFFFFFFFFFF50
:10371000FFFFFFFFFFFFFFFFFFFFFFFFFFFFFFFFB9
:10372000DFE78BBA03F845F845F823F800F8D3D45F
:10373000FFD74E5B2100293A55A58308C4102519EF
:103740005DEFFFFFFFFFFFFFFFFFFFFFFFFFFBDE60
:10375000A308E8319EDF9EE7BFEFFFFFFFFFFFFFFB
:10376000FFFFFFFFFFFFFFFFFFFFFFFFFFFFFFFF69
:10377000FFF751BC02E003F803F043E0ECC27ECF58
:10378000FCBE46212100D394FFFF5184000087290D
:103790005DEFFFFFFFFFFFFFFFFFFFFFFFFFFFFFEB
:1037A00051840000F48CFFEF9EE7BFEFDFFFFFFFC7
:1037B000FFFFFFFFFFFFFFFFFFFFFFFFFFFFFFFF19
:1037C000FFFF3DDF55BD52BC72BCB7B55DC7FFDF23
:1037D000F06B0000093ABFF7FFFFFFFF149D55A5EE
:1037E0005DEFFFFFFFFFFFFFFFFFFFFFFFFFFFFF9B
:1037F000FFFFAC4AA408BBBEDFE77EE7BEEFDFF702
:10380000DFFFFFFFFFFFFFFFFFFFFFFFFFFFFFFFE8
:10381000DFFFDFF7FFEFDFDFBFD79ED7DFDFD8A502
:1038200083082611DBD6FFFFFFFFFFFFFFFFFFFF2F
:103830005DEFFFFFFFFFFFFFFFFFFFFFFFFFFFFF4A
:1038400079EE8BDC2131A9213DCFBFDF7EDF9EE702
:10385000BEEFBFEFDFF7DFF7DFF7DFF7DFF7BFEF31
:10386000BEEF9EE77EDF5ED75ED7DFDF9AB6261912
:103870004208EDA3BFFFFFFFFFFFFFFFFFFFFFFFBA
:103880005DEFFFFFFFFFFFFFFFFFFFFFFFFF74DDA7
:10389000C0DB00FE42EE024289217BB6DFDF7ED72D
:1038A0007EDF7EDF9EE79EE79EE79EE79EE77EDF68
:1038B0007EDF5DD75DD79EDFFFE7F8A50711E31830
:1038C00002C560FDE6D3DBEEFFFFFFFFFFFFFFFF5A
:1038D0005DEFFFFFFFFFFFFFFFFFFFFF9EF784BAD3
:1038E000C1FC42FE82FEA2FE8183452174745EC744
:1038F000DFDF7ED75ED75DD75ED75ED75DD75DD77A
:103900005ED79EDFFFE73DC7F1638408425226E69B
:1039100029FF86FEE0F36AC3FFFFFFFFFFFFFFFF03
:103920005DEFFFFFFFFFFFFFFFFFFFFF18DEC1D2CC
:10393000A2FD22FE42FE42FE62FEE2D4416A4942FC
:1039400053743BA63EC7BFD7BFD7BFD7BFDFBFD7D4
:103950003EC71AA6F263A729824122B462FE83FE03
:10396000AAFE0FFF67FD63BA3CEFFFFFFFFFFFFFFB
:103970005DEFFFFFFFFFFFFFFFFFFFFF9AE680D233
:1039800021FDC2FDE2F5C2F582F582FD62FD61DC3A
:10399000219B846AE96A2C63AF6311746E632C63A4
:1039A000895A0452817AC2CBE2FC62FD82FDC2FDDB
:1039B000C2FDE4FD24FD62CA1CE7FFFFFFFFFFFF1D
:1039C0005DEFFFFFFFFFFFFFFFFFFFFFFFFFB1CC3A
:1039D00081D2C0F3C1FC02FD02FDE2FCC2FCC2FCCC
:1039E00081FC80FBC0C9A48135AD59CE719C218179
:1039F00000DAA1FB82FCA2FC82FCA2FC02FD22FDFB
:103A0000E2FC00FC60DA90CCFFFFFFFFFFFFFFFF4E
:103A10005DEFFFFFFFFFFFFFFFFFFFFFFFFFFFFF68
:103A200059DE0DC406CBE4D203DB03DBE3DAC3D2F9
:103A3000A4C209B3D2BC9EF7FFFFFFFFFFFFFBE666
:103A40000EB4A6BA83D2E3E202EB22EB22E303DB5D
:103A5000E4D26AC3B6D5FFFFFFFFFFFFFFFFFFFF02
:103A6000FFFFFFFFFFFFFFFFFFFFFFFFFFFFFFFF66
:103A7000FFFFFFFFFFFFFFFFFFFFFFFFFFFFFFFF56
:103A8000FFFFFFFFFFFFFFFFFFFFFFFFFFFFFFFF46
:103A9000FFFFFFFFFFFFFFFFFFFFFFFFFFFFFFFF36
:1059D000FFFFFFFFFFFFFFFFFFFFFFFFFFF7FFF7E7
:1059E000FFFFFFFFFFFFFFFFFFFFFFFFFFFFFFFFC7
:1059F000FFFFFFFFFFFFFFFFFFFFFFFFFFFFFFFFB7
:105A0000FFFFFFFFFFFFFFFFFFFFFFFFFFFFFFFFA6
:105A1000FFFFFFFFFFFFFFFFFFFFFFFFFFFFFFFF96
:105A2000FFFFFFFFFFFFFFFFFFFFFFFFFFFFFFFF86
:105A3000FFFFFFFFFFFFFFFFFFFFFFFFFFFFFFFF76
:105A4000FFFFFFFFFFFFFFFFFFFFFFFFFFFFFFFF66
:105A5000FFFFFFFFFFFFFFFFFFFFFFFFFFFFFFFF56
:105A6000FFFFFFFFFFFFFFFFFFFFFFFFFFFFFFFF46
:105A7000FFFFFFFFFFFFFFFFFFFFFFFFFFFFFFFF36
:105A8000FFFFFFFFFFFFFFFFFFFFFFFFFFFFFFFF26
:105A9000FFFFFFFFFFFFFFFFFFFFFFFFFFFFFFFF16
:105AA000FFFFFFFFFFFFFFFFFFFFFFFFFFFFFFFF06
:105AB000FFFFFFFFFFFFFFFFFFFFFFFFFFFFFFFFF6
:105AC000FFFFFFFFFFFFFFFFFFFFFEFFFEFFFFFFE8
:105AD000FFFFFFFFBFF79EEF5DDF5DDF9DDFFFEFA5
:105AE000FFF7FFF7FFF7FFF7FFF7FFF7BFEF9FEFB6
:105AF0003DDF5DDF7EE7DFEFFFF7FFFFFFFFFFFF2B
:105B0000FFFFFFFFFFFFFFFFFFFFFFFFFFFFFFFFA5
:105B1000FFFFFFFFFFFFFFFFFFFFFFFFFFFFFFFF95
:105B2000FFFFFFFFFFFFFFFFFFFFFFFFFFFFFFFF85
:105B3000FFFFFFFFFFFFFFFFFFFFFFFFFFFFFFFF75
:105B4000FFFFFFFFFFFFFFFFFFFFFFFFFFFFFFFF65
:105B5000FFFFFFFFFFFFFFFFFFFFFFFFFFFFFFFF55
:105B6000FFFFFFFFFFFFFFFFFFFFFFFFFFFFFFFF45
:105B7000FFFFFFFFFFFFFFFFFFFFFFFFFFFFFFFF35
:105B8000FFFFFFFFFFFFFFFFFFFFFFFFFFFFFFFF25
:105B9000FFFFFFFFFFFFFFFFFFFFFFFFFFFFFFFF15
:105BA000FFFFFFFFFFFFFFFFFFFFFFFFFFFFFFFF05
:105BB000FFFFFFFFFFFFFFFFFFFFFFFFFFFFFFFFF5
:105BC000FFFFFFFFFFFFFFFFFFFFFFFFFFFFDFFF05
:105BD000DFF79FEF5EDF5EDF7EDF9EDF9EDFBFE7EA
:105BE000FFEFFFEFFFEFFFEFFFEFFFEFFFEFDFE76D
:105BF0009FE75EDF1DD73DD77EE7DFEFFFF7FFFFB3
:105C0000FFFFFFFFFFFFFFFFFFFFFFFFFFFFFFFFA4
:105C1000FFFFFFFFFFFFFFFFFFFFFFFFFFFFFFFF94
:105C2000FFFFFFFFFFFFFFFFFFFFFFFFFFFFFFFF84
:105C3000FFFFFFFFFFFFFFFFFFFFFFFFFFFFFFFF74
:105C4000FFFFFFFFFFFFFFFFFFFFFFFFFFFFFFFF64
:105C5000FFFFFFFFFFFFFFFFFFFFFFFFFFFFFFFF54
:105C6000FFFFFFFFFFFFFFFFFFFFFFFFFFFFFFFF44
:105C7000FFFFFFFFFFFFFFFFFFFFFFFFFFFFFFFF34
:105C8000FFFFFFFFFFFFFFFFFFFFFFFFFFFFFFFF24
:105C9000FFFFFFFFFFFFFFFFFFFFFFFFFFFFFFFF14
:105CA000FFFFFFFFFFFFFFFFFFFFFFFFFFFFFFFF04
:105CB000FFFFFFFFFFFFFFFFFFFFFFFFFFFFFFFFF4
:105CC000FFFFFFFFFFFFFFFFFFFFFFFFDFF7BFEF5C
:105CD0007EDF5FD75FD75FCF5FCF5ECF5FD79FDFBE
:105CE0007EDF9ED77ED77ED77ED79FDF7FD75ED7DA
:105CF0005FD75FD75FD73ECF1DCF3DD79FDFFFEF89
:105D0000FFFFFFFFFFFFFFFFFFFFFFFFFFFFFFFFA3
:105D1000FFFFFFFFFFFFFFFFFFFFFFFFFFFFFFFF93
:105D2000FFFFFFFFFFFFFFFFFFFFFFFFFFFFFFFF83
:105D3000FFFFFFFFFFFFFFFFFFFFFFFFFFFFFFFF73
:105D4000FFFFFFFFFFFFFFFFFFFFFFFFFFFFFFFF63
:105D5000FFFFFFFFFFFFFFFFFFFFFFFFFFFFFFFF53
:105D6000FFFFFFFFFFFFFFFFFFFFFFFFFFFFFFFF43
:105D7000FFFFFFFFFFFFFFFFFFFFFFFFFFFFFFFF33
:105D8000FFFFFFFFFFFFFFFFFFFFFFFFFFFFFFFF23
:105D9000FFFFFFFFFFFFFFFFFFFFFFF7FFF7FFFF23
:105DA000FFFFFFFFFFFFFFFFFFFFFFFFFFFFFFFF03
:105DB000FFFFFFFFFFFFFFFFFFFFFFFFFFFFFFFFF3
:105DC000FFFFFFFFFFFFFFFFFFFFDFF79FE75ED74C
:105DD0005ECF5FCF5FCF5FCF5FCF3FCF1FCF5FD7AC
:105DE0007FD77FD77FD77ED77FD77FD77FD77FCF0C
:105DF0005FCF5FCF5FCF5ECF3ECF3ECF5ECF5ED770
:105E0000DFEFFFF7FFFFFFFFFFFFFFFFFFFFFFFFDA
:105E1000FFFFFFFFFFFFFFFFFFFFFFFFFFFFFFFF92
:105E2000FFFFFFFFFFFFFFFFFFFFFFFFFFFFFFFF82
:105E3000FFFFFFFFFFFFFFFFFFFFFFFFFFFFFFFF72
:105E4000FFFFFFFFFFFFFFFFFFFFFFFFFFFFFFFF62
:105E5000FFFFFFFFFFFFFFFFFFFFFFFFFFFFFFFF52
:105E6000FFFFFFFFFFFFFFFFFFFFFFFFFFFFFFFF42
:105E7000FFFFFFFFFFFFFFFFFFFFFFFFFFFFFFFF32
:105E8000FFFFFFFFFFFFFFFFFFFFFFFFFFFFFFFF22
:105E9000FFFFFFFFFFFFFFF7BFEF9FE7BFE7FFEF4A
:105EA000FFFFFFFFFFFFDFFFFFFFFFFFFFFFFFFF22
:105EB000FFFFFFFFFFFFFFFFFFFFFFFFFFFFFFFFF2
:105EC000FEFFFEFFFFFFFFFFDFEF7EDF3ECF3EC79F
:105ED0005FC73FBF3EBF5FC77FCF5FCF3FCF1FCF03
:105EE0005FCF5ECF5ECF3EC75ECF5ECF5ECF3EC799
:105EF0005FC75FC73FC71EBF1EC71EC71EC71DC7E0
:105F00005ED7BFE7FFF7FFFFFFFFFFFFFFFFFFFFCA
:105F1000FFFFFFFFFFFFFFFFFFFFFFFFFFFFFFFF91
:105F2000FFFFFFFFFFFFFFFFFFFFFFFFFFFFFFFF81
:105F3000FFFFFFFFFFFFFFFFFFFFFFFFFFFFFFFF71
:105F4000FFFFFFFFFFFFFFFFFFFFFFFFFFFFFFFF61
:105F5000FFFFFFFFFFFFFFFFFFFFFFFFFFFFFFFF51
:105F6000FFFFFFFFFFFFFFFFFFFFFFFFFFFFFFFF41
:105F7000FFFFFFFFFFFFFFFFFFFFFFFFFFFFFFFF31
:105F8000FFFFFFFFFFFFFFFFFFFFFFFFFFFFFFFF21
:105F9000FFFFFFFFFFFFBFEF3DDFFDCE3ED79FE7D7
:105FA000FFFFFFFFFFFFDFFFFFFFFFFFFFFFFFFF21
:105FB000FFFFFFFFFFFFFFFFFFFFFFFFFFFFFFFFF1
:105FC000FFFFFFFFFFFFFFEF9FDF3ECF1EBF1EBFA4
:105FD0003FBF3EBF3EBF3FC73FC73FC73FC73FC7AB
:105FE0003FC75FC75FC73EC73EC73EC73EC73EBF4E
:105FF0003FBF5FBF5FBF1EBFFEB6FEBEFEBE1EBF81
:10600000DDBE3ECFBFE7FFF7FFFFFFFFFFFFFFFF54
:10601000FFFFFFFFFFFFFFFFFFFFFFFFFFFFFFFF90
:10602000FFFFFFFFFFFFFFFFFFFFFFFFFFFFFFFF80
:10603000FFFFFFFFFFFFFFFFFFFFFFFFFFFFFFFF70
:10604000FFFFFFFFFFFFFFFFFFFFFFFFFFFFFFFF60
:10605000FFFFFFFFFFFFFFFFFFFFFFFFFFFFFFFF50
:10606000FFFFFFFFFFFFFFFFFFFFFFFFFFFFFFFF40
:10607000FFFFFFFFFFFFFFFFFFFFFFFFFFFFFFFF30
:10608000FFFFFFFFFFFFFFFFFFFFFFFFFFFFFFFF20
:10609000FFFFFFFFFFFF9FEF1DD7BCC6FDCE7EDFDA
:1060A000FFFFFFFFFFFFFFFFFFFFFFFFFFFFFFFF00
:1060B000FFFFFFFFFFFFFFFFFFFFFFFFFFFFFFFFF0
:1060C000FFFFFFFFBFF75EDF1DC71EBF1EBF1EB76E
:1060D0001EBF3EBF3EC73EC71EBFFEBE3EBF3FBF48
:1060E0001FBF3FBF3FBF1FBF1EBF3EBF1EB71EB774
:1060F0003FBF1EB7FEB6FEB61EBF1EBFDEBE9CB6BD
:10610000BDB6DDBE3ECFBFE7FFFFFFFFFFFFFFFFD6
:10611000FFFFFFFFFFFFFFFFFFFFFFFFFFFFFFFF8F
:10612000FFFFFFFFFFFFFFFFFFFFFFFFFFFFFFFF7F
:10613000FFFFFFFFFFFFFFFFFFFFFFFFFFFFFFFF6F
:10614000FFFFFFFFFFFFFFFFFFFFFFFFFFFFFFFF5F
:10615000FFFFFFFFFFFFFFFFFFFFFFFFFFFFFFFF4F
:10616000FFFFFFFFFFFFFFFFFFFFFFFFFFFFFFFF3F
:10617000FFFFFFFFFFFFFFFFFFFFFFFFFFFFFFFF2F
:10618000FFFFFFFFFFFFFFFFFFFFFFFFFFFFFFFF1F
:10619000FFFFFFFFFFFFDFF73DDFDCCE1DCF5EDF40
:1061A000FFFFFFFFFFFFFFFFFFFFFFFFFFFFFFFFFF
:1061B000FFFFFFFFFFFFFFFFFFFFFFFFFFFFFFFFEF
:1061C000FFFFDFFF9FE7FDC6DDB61EB73EB7FDAEA2
:1061D0001EBF1DBFFDBEFDB61EB71EB73FAF3FAF12
:1061E0001FAF3FB73FB73FB73FB73FB73FB71FAF4F
:1061F000DEA6FEAE1FAFFEAEDEAEBDAEBDAEBDAE28
:10620000BDAE9CA6BCB65ED7DFF7FFFFFFFFFFFF6A
:10621000FFFFFFFFFFFFFFFFFFFFFFFFFFFFFFFF8E
:10622000FFFFFFFFFFFFFFFFFFFFFFFFFFFFFFFF7E
:10623000FFFFFFFFFFFFFFFFFFFFFFFFFFFFFFFF6E
:10624000FFFFFFFFFFFFFFFFFFFFFFFFFFFFFFFF5E
:10625000FFFFFFFFFFFFFFFFFFFFFFFFFFFFFFFF4E
:10626000FFFFFFFFFFFFFFFFFFFFFFFFFFFFFFFF3E
:10627000FFFFFFFFFFFFFFFFFFFFFFFFFFFFFFFF2E
:10628000FFFFFFFFFFFFFFFFFFFFFFFFFFFFFFFF1E
:10629000FFFFFFFFFFFFDFF77EE75DE79FE7BFEF51
:1062A000FFFFFFFFFFFFFFF7FFF7FFF7FFF7FFFF1E
:1062B000FFFFFFFFFFFFFFFFFFFFFFFFDFFFFFFF0E
:1062C000FFFF7FE71ECFDDBEBDAEDDAEFEAEFDAE95
:1062D000FEAEDDAEDDAE1FB73FB71FA7DF96DF9680
:1062E0005E8E3E861D861C863C865D8EBE96FF9E1B
:1062F0001FA71FA7DE9EBE9EBEA6BEA69DA69DA6EC
:10630000BDA69D9E7CA6BCB65FDFFFFFDFF7FFFF4B
:10631000FFFFFFFFFFFFFFFFFFFFFFFFFFFFFFFF8D
:10632000FFFFFFFFFFFFFFFFFFFFFFFFFFFFFFFF7D
:10633000FFFFFFFFFFFFFFFFFFFFFFFFFFFFFFFF6D
:10634000FFFFFFFFFFFFFFFFFFFFFFFFFFFFFFFF5D
:10635000FFFFFFFFFFFFFFFFFFFFFFFFFFFFFFFF4D
:10636000FFFFFFFFFFFFFFFFFFFFFFFFFFFFFFFF3D
:10637000FFFFFFFFFFFFFFFFFFFFFFFFFFFFFFFF2D
:10638000FFFFFFFFFFFFFFFFFFFFFFFFFFFFFFFF1D
:10639000FFFFFFFFFFFFFFFFDFF7DFF7FFF7FFF76D
:1063A000FFFFFFF7BFEF7EDF7FDFBFE7FFF7FFFFF6
:1063B000FFFFFFFFFFFFFFFFFFFFFFFFFFFFFFFFED
:1063C000DFEF5FD7DDBE7CAE9DA6BDA6DEA6FEA636
:1063D000BD9EFEA61FA7DE9E5E86DC753A55B844BC
:1063E000783C783C583C773C9844B84CF954395543
:1063F000BB6D7E86FF96DF96BF969E969E9EBE9E46
:106400009D967D963B963B9EDDC6DFEFFFF7FFFF37
:10641000FFFFFFFFFFFFFFFFFFFFFFFFFFFFFFFF8C
:10642000FFFFFFFFFFFFFFFFFFFFFFFFFFFFFFFF7C
:10643000FFFFFFFFFFFFFFFFFFFFFFFFFFFFFFFF6C
:10644000FFFFFFFFFFFFFFFFFFFFFFFFFFFFFFFF5C
:10645000FFFFFFFFFFFFFFFFFFFFFFFFFFFFFFFF4C
:10646000FFFFFFFFFFFFFFFFFFFFFFFFFFFFFFFF3C
:10647000FFFFFFFFFFFFFFFFFFFFFFFFFFFFFFFF2C
:10648000FFFFFFFFFFFFFFFFFFFFFFFFFFFFFFFF1C
:10649000FFFFFFFFFFFFFFFFFFFFFFFFFFFFFFFF0C
:1064A000FFFFFFF73ED7DCC6BCBE1DCFDFEFFFFF0F
:1064B000FFFFFFFFFFFFFFFFFFFFFFFFFFFFFFF7F4
:1064C0009FD71EB75C9E5C9E9D9E9D9E7D96BE96B0
:1064D000BF96DF967E7E7B5D783C172CF723F823F2
:1064E00018241824F723F723F623F61BF623F623A4
:1064F0005734B93C9C5D5F769F869F8E7F8E5D860C
:106500005D8E7D8E3C8EFA8D3BA63FCFFFF7FFF769
:10651000FFFFFFFFFFFFFFFFFFFFFFFFFFFFFFFF8B
:10652000FFFFFFFFFFFFFFFFFFFFFFFFFFFFFFFF7B
:10653000FFFFFFFFFFFFFFFFFFFFFFFFFFFFFFFF6B
:10654000FFFFFFFFFFFFFFFFFFFFFFFFFFFFFFFF5B
:10655000FFFFFFFFFFFFFFFFFFFFFFFFFFFFFFFF4B
:10656000FFFFFFFFFFFFFFFFFFFFFFFFFFFFFFFF3B
:10657000FFFFFFFFFFFFFFFFFFFFFFFFFFFFFFFF2B
:10658000FFFFFFFFFFFFFFFFFFFFFFFFFFFFFFFF1B
:10659000FFFFFFFFFFFFFFFFFFFFFFFFFFF7FFF71B
:1065A000FFF7FFF71DCF7BB63AAE7BBE9FEFFFFF35
:1065B000FFFFFFFFFFFFFFFFFFFFFFFFFFFFDFEF1B
:1065C0003EB79D965C8E7D967E965D8E7E8EBF8E4E
:1065D0009F869B5D782CD61BD713D713F81B191CED
:1065E000191C191C181C381C381C181C171C171CCB
:1065F000D613B6131724DA3CBC5D7F7E9F863D7EA2
:106600003D7E3D863C86FB85DA8D7CAEDFE7FFF77D
:10661000FFFFFFFFFFFFFFFFFFFFFFFFFFFFFFFF8A
:10662000FFFFFFFFFFFFFFFFFFFFFFFFFFFFFFFF7A
:10663000FFFFFFFFFFFFFFFFFFFFFFFFFFFFFFFF6A
:10664000FFFFFFFFFFFFFFFFFFFFFFFFFFFFFFFF5A
:10665000FFFFFFFFFFFFFFFFFFFFFFFFFFFFFFFF4A
:10666000FFFFFFFFFFFFFFFFFFFFFFFFFFFFFFFF3A
:10667000FFFFFFFFFFFFFFFFFFFFFFFFFFFFFFFF2A
:10668000FFFFFFFFFFFFFFFFFFFFFFFFFFFFFFFF1A
:10669000FFFFFFFFFFFFFFFFFFFFFFFFFFF7FFF71A
:1066A000FFF7FFF75ED7DCC67BBEBBC6BFEFFFFFC1
:1066B000FFFFFFFFFFFFFFFFFFFFFFFFFFF79FDF72
:1066C000DDA65C865C8E7D965D8E7E8E9F8E5F7E67
:1066D0001A453724B60BF713391C391CF913191452
:1066E000F8131814181418141814181C181C181C53
:1066F000181C181C181CD61337245C555F767F7E37
:106700003D7E1C7E1C7E1C86DA85DA8D5ECFFFEF17
:10671000FFFFFFFFFFFFFFFFFFFFFFFFFFFFFFFF89
:10672000FFFFFFFFFFFFFFFFFFFFFFFFFFFFFFFF79
:10673000FFFFFFFFFFFFFFFFFFFFFFFFFFFFFFFF69
:10674000FFFFFFFFFFFFFFFFFFFFFFFFFFFFFFFF59
:10675000FFFFFFFFFFFFFFFFFFFFFFFFFFFFFFFF49
:10676000FFFFFFFFFFFFFFFFFFFFFFFFFFFFFFFF39
:10677000FFFFFFFFFFFFFFFFFFFFFFFFFFFFFFFF29
:10678000FFFFFFFFFFFFFFFFFFFFFFFFFFFFFFFF19
:10679000FFFFFFFFFFFFFFFFFFFFFFF7FFF7FFEF29
:1067A000DFEFFFF7BFE77EDF5EDF7EE7FFF7FFFF8C
:1067B000FFFFFFFFFFFFFFFFFFFFFFFFDFEF1EC732
:1067C0009D9E5C865D8E7D8E7E8EBF8E3E7EF94464
:1067D000F61B171C39145A1C5A1419141914391C95
:1067E000391C391C391C181C1814191C391C191493
:1067F000391C391C591C181CD61337245B4D3E76A6
:106800005E7E1D76FC75FC7DDB7DB9859CAEDFE789
:10681000FFF7FFFFFFFFFFFFFFFFFFFFFFFFFFFF90
:10682000FFFFFFFFFFFFFFFFFFFFFFFFFFFFFFFF78
:10683000FFFFFFFFFFFFFFFFFFFFFFFFFFFFFFFF68
:10684000FFFFFFFFFFFFFFFFFFFFFFFFFFFFFFFF58
:10685000FFFFFFFFFFFFFFFFFFFFFFFFFFFFFFFF48
:10686000FFFFFFFFFFFFFFFFFFFFFFFFFFFFFFFF38
:10687000FFFFFFFFFFFFFFFFFFFFFFFFFFFFFFFF28
:10688000FFFFFFFFFFFFFFFFFFFFFFFFFFFFFFFF18
:10689000FFFFFFFFFFFFFFFFDFF79FE75ED71DCF83
:1068A0003DD7BEE7FFF7FFF7FFF7FFFFFFFFFFFF53
:1068B000FFFFFFFFFFFFFFFFFFFFFFFF9FDF9CB614
:1068C0005D963D8E3D867E8E9E8E3D7EF94CD51B1F
:1068D00038245924591C39143914591C581C581C73
:1068E000381C3824381C381C381C39245924591CAD
:1068F000391C1914391C79243824D61B572C3A4DCD
:10690000FD6D1D76FD75FC75FB75BA7D1A965FCF22
:10691000FFF7FFFFFFFFFFFFFFFFFFFFFFFFFFFF8F
:10692000FFFFFFFFFFFFFFFFFFFFFFFFFFFFFFFF77
:10693000FFFFFFFFFFFFFFFFFFFFFFFFFFFFFFFF67
:10694000FFFFFFFFFFFFFFFFFFFFFFFFFFFFFFFF57
:10695000FFFFFFFFFFFFFFFFFFFFFFFFFFFFFFFF47
:10696000FFFFFFFFFFFFFFFFFFFFFFFFFFFFFFFF37
:10697000FFFFFFFFFFFFFFFFFFFFFFFFFFFFFFFF27
:10698000FFFFFFFFFFFFFFFFFFFFFFFFFFFFFFFF17
:10699000FFFFFFFFFFFFDFF75EDFDCC67BAE3AA63F
:1069A0007AB63CD7FFF7FFFFFFFFFFFFFFFFFFFFB8
:1069B000FFFFFEFFFFFFFFFFFFFFFFF77FD75C9E9C
:1069C000FC8D3D8E3D8E7E8E5E7E1A4D16241724E4
:1069D000181C591C791C591C581C581C571C571C36
:1069E00037245824382438241824382438241824E8
:1069F00039245A24591C381C582438243724372C5D
:106A00007B5D1E761E76FC75DB75BA7D9985FEBEB4
:106A1000FFF7FFFFFFFFFFFFFFFFFFFFFFFFFFFF8E
:106A2000FFFFFFFFFFFFFFFFFFFFFFFFFFFFFFFF76
:106A3000FFFFFFFFFFFFFFFFFFFFFFFFFFFFFFFF66
:106A4000FFFFFFFFFFFFFFFFFFFFFFFFFFFFFFFF56
:106A5000FFFFFFFFFFFFFFFFFFFFFFFFFFFFFFFF46
:106A6000FFFFFFFFFFFFFFFFFFFFFFFFFFFFFFFF36
:106A7000FFFFFFFFFFFFFFFFFFFFFFFFFFFFFFFF26
:106A8000FFFFFFFFFFFFFFFFFFFFFFFFFFFFFFFF16
:106A9000FFFFFFFFFFFFDFFF3ED77CAE5C967C96DB
:106AA0005A961CBFFFEFFFFFDFFFFFFFFFFFFFFF57
:106AB000FEFFFFFFFFFFFFFFFFFFDFF7FFBE3D967B
:106AC0001D8E3E8E7E8E7E865A5D572C5924591C13
:106AD0007A24591C591C781C7824572437243724CD
:106AE00037243724382C172CF72BF72B172C372C5F
:106AF000182C182459247A2459245924592C172C39
:106B0000793C9D651F76DD75FD7DBB7D797D7CAE15
:106B1000FFEFFFF7FFFFFFFFFFFFFFFFFFFFFFFF9D
:106B2000FFFFFFFFFFFFFFFFFFFFFFFFFFFFFFFF75
:106B3000FFFFFFFFFFFFFFFFFFFFFFFFFFFFFFFF65
:106B4000FFFFFFFFFFFFFFFFFFFFFFFFFFFFFFFF55
:106B5000FFFFFFFFFFFFFFFFFFFFFFFFFFFFFFFF45
:106B6000FFFFFFFFFFFFFFFFFFFFFFFFFFFFFFFF35
:106B7000FFFFFFFFFFFFFFFFFFFFFFFFFFFFFFFF25
:106B8000FFFFFFFFFFFFFFFFFFFFFFFFFFFFFFFF15
:106B9000FFFFFFFFFFFFFFFF5FDF7CAE3B8E5B86EB
:106BA0001986BCA69FD7FFF7FFF7FFEFFFEFFFF7B0
:106BB000FFFFFFFFFFFFFFFFFFFF9FDF7EA6FD85BB
:106BC000FC7D3D865E86DC6DD944582C59247B249F
:106BD0005A1C5A2478243724162C3634763CB74C69
:106BE0001955395D3A5D1A5D19651865B754564CEB
:106BF000573C372C392C5A2459247A2C792C382C90
:106C0000382CFB4CDE65DD6DDD759B755A75FB958B
:106C10007FCFFFE7FFEFFFEFFFEFFFF7FFF7FFF794
:106C2000FFFFFFFFFFFFFFFFFFFFFFFFFFFFFFFF74
:106C3000FFFFFFFFFFFFFFFFFFFFFFFFFFFFFFFF64
:106C4000FFFFFFFFFFFFFFFFFFFFFFFFFFFFFFFF54
:106C5000FFFFFFFFFFFFFFFFFFFFFFFFFFFFFFFF44
:106C6000FFFFFFFFFFFFFFFFFFFFFFFFFFFFFFFF34
:106C7000FFFFFFFFFFFFFFFFFFFFFFFFFFFFFFFF24
:106C8000FFFFFFFFFFFFFFFFFFFFFFFFFFFFFFFF14
:106C9000FFFFFFFFFFFFFFFF9FE7DDBE7BA69CA678
:106CA0009CA69CA67CA61C9EFB951B963B967CAE48
:106CB000DFE7FFF7FFFFBFEF7FD7DEB61C8E3D8615
:106CC0001C7E5D7E5D6E1945572C582C392C7A340C
:106CD0005A2C592C5834773CD75C797D5C9EFEB693
:106CE0003FC75FCF7FCF7FC75EC71DC79BAEFA95FB
:106CF000186D974C3834592C3924381C7824B82C0A
:106D0000572498349C55FD6DBD6D9B6D7B6D7A75D8
:106D10001C8E7D9EBDAEDDB6DCB6DCBE1DC75ED76B
:106D20009FDFDFE7FFF7FFFFFFFFFFFFFFFFFFFF33
:106D3000FFFFFFFFFFFFFEFFFFFFFFFFFFFFFFFF64
:106D4000FFFFFFFFFFFFFFFFFFFFFFFFFFFFFFFF53
:106D5000FFFFFFFFFFFFFFFFFFFFFFFFFFFFFFFF43
:106D6000FFFFFFFFFFFFFFFFFFFFFFFFFFFFFFFF33
:106D7000FFFFFFFFFFFFFFFFFFFFFFFFFFFFFFFF23
:106D8000FFFFFFFFFFFFFFFFFFFFFFFFFFFFFFFF13
:106D9000FFFFFFFFFFFFFFFFFFF77FDF5ED77FD71C
:106DA000BFDF5FC71C967654F53B76449654B65CBD
:106DB000BDB6FFEFFFFF5FDF7DAE3C961B863C7EDE
:106DC0003C7E5D7EDC5DB82C5724992C592C3934DF
:106DD0003834573CD95C1C8E3FBFBFDFFFEFFFF755
:106DE000FFF7FFF7FFF7FFF7FFF7FFF7FFF7FFEFFB
:106DF0005FC75C963965994479345824782498247F
:106E00009824982C3A45DD65DD659C657B655A655F
:106E10009A6D9A759975997DB9859885988DD9954A
:106E2000BCBE5ED71DCF9BC63DDFFFF7FFFFFFFF58
:106E3000FFFFFFFFFEFFFEFFFEFFFEFFFFFFFFFF66
:106E4000FFFFFFFFFFFFFFFFFFFFFFFFFFFFFFFF52
:106E5000FFFFFFFFFFFFFFFFFFFFFFFFFFFFFFFF42
:106E6000FFFFFFFFFFFFFFFFFFFFFFFFFFFFFFFF32
:106E7000FFFFFFFFFFFFFFFFFFFFFFFFFFFFFFFF22
:106E8000FFFFFFFFFFFFFFFFFFFFFFFFFFFFFFFF12
:106E9000FFFFFFFFFFFFFFFFFFFFFFFFFFF7FFF712
:106EA000FFFFFFEFFFB6186537347834773C564460
:106EB000BA85DFE7FFFF7FE77DAE3C8E1A7EFA756D
:106EC0003D761D6E1945782CB92CB92C7834573C79
:106ED0005654597DDDBEDFE7FFF7FFFFFFFFFFFFE1
:106EE000FFFFFFFFFFFFFFFFFFFFFFFFFFF7FFF7C2
:106EF000FFF7FFE73EBFFA85F854983C7834592CE9
:106F0000992C992CD93C7B55DD65BC659B659B5DB7
:106F10009B659A5D7A5D79659A75BA7DBA85DA95D1
:106F20003BAE7FD7FDCE97A5D9ADBCC65FDFFFEFE7
:106F3000FFFFFFFFDFFFFEFFFEFFFEFFFFFFFFFF84
:106F4000FFFFFFFFFFFFFFFFFFFFFFFFFFFFFFFF51
:106F5000FFFFFFFFFFFFFFFFFFFFFFFFFFFFFFFF41
:106F6000FFFFFFFFFFFFFFFFFFFFFFFFFFFFFFFF31
:106F7000FFFFFFFFFFFFFFFFFFFFFFFFFFFFFFFF21
:106F8000FFFFFFFFFFFFFFFFFFFFFFFFFFFFFFFF11
:106F9000FFFFFFFFFFFFFFFFFFFFFFFFFFFFFFFF01
:106FA000DFFFFFFF9FD71C86D944782C772C773CD6
:106FB000F8643FC7FFFFFFFFFFBE3C8E1A7EFA75E5
:106FC0003D76BD65B934982CBA2C7824773C97541B
:106FD000FB953ECFFFF7FFFFFEFFDEFFBEFF9DFFED
:106FE000BBFF9AFF7AFF7BFF9CFFBDFFDEFFFFFF29
:106FF000FFFFFFF7FFF79FCF5C9E18657844993C31
:10700000792C993499341A4DBC5DBC659B5DBC5D8F
:107010007B55BC5D9B5D5A5D9B6D3D86FFA65FC742
:107020003ECFDFEFBFE7FDCEBCBE1AA6FA9DDEBEA7
:10703000BFE7FFF7FFFFFFFFDEFFFFFFFFFFFFFFE1
:10704000FFFFFFFFFFFFFFFFFFFFFFFFFFFFFFFF50
:10705000FFFFFFFFFFFFFFFFFFFFFFFFFFFFFFFF40
:10706000FFFFFFFFFFFFFFFFFFFFFFFFFFFFFFFF30
:10707000FFFFFFFFFFFFFFFFFFFFFFFFFFFFFFFF20
:10708000FFFFFFFFFFFFFFFFFFFFFFFFFFFFFFFF10
:10709000FFFFFFFFFFFFFFFFFFFFFFFFFFFFFEFF01
:1070A000FFFFFFFFBFDF7C9E18557734772CB83C7D
:1070B000974C1B96DFF7FFFF9FDF5CA61A7E1B76BF
:1070C000DC6D5B55B934B92CB9345734B85CBA951A
:1070D000BFE7FFF7FFFFFEFFBDFF9BFFF7FE53F685
:1070E000F1EDD0E5B0E5B0E5F0E552EE16FF99FF21
:1070F000FEFFFFFFFFFFFFF7FFE79CA6195D783C4F
:107100007834B934983CF9443A4D3A4D7B555C5546
:107110009D55BD5D9D5D5B5D5A65DB7DDFA6BFCF87
:10712000FFF7FFF7FFEFFFE75FC7FA8D186D186DE8
:107130007DA63FCFFFF7FFFFFFFFFFFFFFFFFFF73A
:10714000FFFFFFFFFFFFFFFFFFFFFFFFFFFFFFFF4F
:10715000FFFFFFFFFFFFFFFFFFFFFFFFFFFFFFFF3F
:10716000FFFFFFFFFFFFFFFFFFFFFFFFFFFFFFFF2F
:10717000FFFFFFFFFFFFFFFFFFFFFFFFFFFFFFFF1F
:10718000FFFFFFFFFFFFFFFFFFFFFFFFFFFFFFFF0F
:10719000FFFFFFFFFFFFFFFFFFFFFFFFFFFFFFFFFF
:1071A000FFFFFFF7DFDFBDA67965D844B934B934F6
:1071B000773C386D7FDFDFF7FFF7FEBEFA7DBA65FB
:1071C0003A5DB944BA34BA349934B84C9A857FD709
:1071D000FFFFFEFFFDFF7BF797E6D3D590D590DD4F
:1071E000B0E511EE32F611EEAFDD8ED58FD5B1D50B
:1071F00096EE5BFFDDFFFEFFFFFF7FD7FB8DB84CF8
:107200009944B93C993CB93C983C98341A45FA3CAD
:107210003C4D1C4D3C557C5D3A5DF85CBA7DDDAE65
:10722000BFEFFFF7FFF75ECF787DD65C1955195594
:10723000F85CFB955FD7FFF7FFFFFFFFFFFFFFFF46
:10724000FFFFFFFFFFFFFFFFFFFFFFFFFFFFFFFF4E
:10725000FFFFFFFFFFFFFFFFFFFFFFFFFFFFFFFF3E
:10726000FFFFFFFFFFFFFFFFFFFFFFFFFFFFFFFF2E
:10727000FFFFFFFFFFFFFFFFFFFFFFFFFFFFFFFF1E
:10728000FFFFFFFFFFFFFFFFFFFFFFFFFFFFFFFF0E
:10729000FFFFFFFFFFFFFFFFFFFFFFFFDEFFBFF767
:1072A0007FDF3EC7BCAE1B8EDB753A55982CDA34B7
:1072B000B83CB74C3C9EFFEFFFF7DFE7B97DF754D2
:1072C00077449944DB44DB3C783C5A651FBFFFF7A9
:1072D000FFFFBCFFD7F6D2D590CD32DEF7F659FFCF
:1072E000BBFFFCFFFCFFDBFF9BFF5AFFB7EEF3E5A4
:1072F00050D5B2DD96F6DDFFFFFFFFEFDEC6187555
:107300009844BA3CB93CD93CF93CD934B934BA3484
:10731000BB3CDB3CDB44FB4C1A5D3965DB75BDA631
:10732000DFE7BFE7FFEF9FC75875D7543A4D3A4D97
:10733000F94CF85C99855FCFFFF7FFFFFFFFFFFF78
:10734000FFFFFFFFFFFFFFFFFFFFFFFFFFFFFFFF4D
:10735000FFFFFFFFFFFFFFFFFFFFFFFFFFFFFFFF3D
:10736000FFFFFFFFFFFFFFFFFFFFFFFFFFFFFFFF2D
:10737000FFFFFFFFFFFFFFFFFFFFFFFFFFFFFFFF1D
:10738000FFFFFFFFFFFFFFFFFFFFFFFFFFFFFFFF0D
:10739000FFF7FFF75EDFDFEFFFF7FFFFBEF7BBCEC4
:1073A0003BA6FA8DBA7DBA75DC759B5DFA3CFA3C5A
:1073B000D93CB744596D7FC7FFF7DFEFDEAE1865E4
:1073C000B84C9944BA44993CD94C5D8EDFDFFFFF3D
:1073D0009CFF97EE91D5F2DD57FFD9FFBAFFFCFF76
:1073E000DDFFDDFFFCFFDCFFDDFFDDFFDCFFBBFFC2
:1073F000F6FEF1E5B1D597EEBEFFFFFF7FE7DA9528
:10740000B954BA3CBA3CDA3C1A3D1A3D1A3DFB3C31
:10741000DB3CDB3CDB44DB4CFA4CF954FC751F9F36
:107420001FBFFA9D7CA65FBF3D86395519457B4D30
:107430001945D844175D1A967FD7FFF7FFFFFFFF66
:10744000FFFFFFFFFFFFFFFFFFFFFFFFFFFFFFFF4C
:10745000FFFFFFFFFFFFFFFFFFFFFFFFFFFFFFFF3C
:10746000FFFFFFFFFFFFFFFFFFFFFFFFFFFFFFFF2C
:10747000FFFFFFFFFFFFFFFFFFFFFFFFFFFFFFFF1C
:10748000FFFFFFFFFFFFFFFFFFFFDFFFFFFFFFFF2C
:10749000FFEF3DCF7BAE5EC7FFE7FFF7BFF79BC6B1
:1074A0001A96BA75BB6DDC6DFD75FD6D5B55D93CEB
:1074B000D83CD83CB84C5D96FFEFFFF7BFDFFB8DA3
:1074C000D95CB94CB84C7644596D3FBFFFEFDEFF35
:1074D00096E6D2DD75EEBAFFFCFFDCFF79FFD6FE43
:1074E00075F633E6F2E533EE95F618FF9BFFFCFFE9
:1074F000FCFF79FF75E6B2CD76E6FEFFFFF79DAEA5
:107500003B65DB44BA3CFA3C193D19351935F93471
:10751000FA3CFA3CDA3CBA3CBA44FA447B551D6E5C
:107520009A6DB7541865FD7DBC6DF954F9443A4520
:107530003945F83CD644F65C9CA6FFEFFFFFFFFF01
:10754000FFFFFFFFFFFFFFFFFFFFFFFFFFFFFFFF4B
:10755000FFFFFFFFFFFFFFFFFFFFFFFFFFFFFFFF3B
:10756000FFFFFFFFFFFFFFFFFFFFFFFFFFFFFFFF2B
:10757000FFFFFFFFFFFFFFFFFFFFFFFFFFFFFFFF1B
:10758000FFFFFFFFFFFFFFFFFFFFFFFFFFFFFFF713
:107590009FDF1A9ED8857B9E7FC7FFEFFFF77FDFB7
:1075A0003B96FB75DC75DD6DBD6DFE6DBD65F9440B
:1075B000F844D844D94439655FCFFFF7DFEF1FC7E0
:1075C0007A75D854B6549554D985DFD7FFF77CF730
:1075D00056E6F7F6BAFFFBFF9BFFB7EED4DD92DD70
:1075E00091DDD2E513EE13E6B2DDB2D535DEF8EE6D
:1075F000BCFFFCFFBAFFB7EE35D67BF7FFF77FCFB6
:107600009B75FA54B844D944D844F8441945F94410
:10761000D83CFA44FA44DA3CFA441B451A45D93CB2
:10762000D944F94CFA4CD94CD94CF94C1A4D19455E
:107630001945393D183DB644997D5FCFFFFFFFFFE7
:10764000FFFFFFFFFFFFFFFFFFFFFFFFFFFFFFFF4A
:10765000FFFFFFFFFFFFFFFFFFFFFFFFFFFFFFFF3A
:10766000FFFFFFFFFFFFFFFFFFFFFFFFFFFFFFFF2A
:10767000FFFFFFFFFFFFFFFFFFFFFFFFFFFFFFFF1A
:10768000FFFFFFFFFFFFFFFFFFFFFFFFFFFFDFE742
:10769000BDB6B97D9975DA7DBDA6FFDFFFF7FFEFB7
:1076A0001EB73B8E9B759C6D9C65BD65DC657A55F0
:1076B000F84CD844F94CB74C1B96DFE7FFF7FFEFC7
:1076C0009CAE98853775577D9BAEFFEFFFFFBEFFE1
:1076D0007DFFBDFFDCFF39FF14E692D515DED8EE45
:1076E0007BFF7BFF7CFF7CFF5AF7D8EE34DE91CD29
:1076F00055EE5AFFDDFFBDFF1BE7DEF7FFFFBFE7DB
:107700005CA69A7D386D1865D75CD75CD854B74CA9
:10771000B844D94CFA4C1A451A451A451A45FA3C50
:107720001A453B451B45DA44FA4CFA4CF94CD9440E
:10773000D93C1A3DF93CB83CD7543B9EBFEFFFFF04
:10774000FFFFFFFFFFFFFFFFFFFFFFFFFFFFFFFF49
:10775000FFFFFFFFFFFFFFFFFFFFFFFFFFFFFFFF39
:10776000FFFFFFFFFFFFFFFFFFFFFFFFFFFFFFFF29
:10777000FFFFFFFFFFFFFFFFFFFFFFFFFFFFFFFF19
:10778000FFFFFFFFFFFFFFFFFFFFFFFFDFEF3FCF29
:10779000FB8DFB7DBA6D996DFA851EBFFFF7FFF774
:1077A000FFDFBCAE9A7D9B75BC6D9C65BC65DB65DF
:1077B0007A55F844F94CF84C1865DEB6FFF7FFFF30
:1077C000BFDF1DC7FDBE1DC79FDFFFF7FFFFFFFF28
:1077D000DFFFDFFF7CFF76E692CD55E6BCFFDDFFE5
:1077E000DCFFFCFFFDFFFEFFFDFFFCFF58FF95F6F1
:1077F000B2D556EEBDFFDEFFFFFFFFFFFFFFDFF755
:10780000DFE77FCF3EC71EC7BDB67DAE3C9EDB8D9A
:107810007975F85CD74CF94CF944FA441B453B4563
:107820003B451B3D1B3DFB3C1B45D944B944D9445A
:10783000DA3CDA3CDB34DA3C974459755ECFFFFF23
:10784000FFFFFFFFFFFFFFFFFFFFFFFFFFFFFFFF48
:10785000FFFFFFFFFFFFFFFFFFFFFFFFFFFFFFFF38
:10786000FFFFFFFFFFFFFFFFFFFFFFFFFFFFFFFF28
:10787000FFFFFFFFFFFFFFFFFFFFFFFFFFFFFFFF18
:10788000FFFFDFFFFFFFFFFFFFFFFFF79FD77CA694
:107890009A7DBB75BB659A65796D3B965FD7FFF79F
:1078A000FFEF3DCFDA957A7D9B6D7B5DBC5DFD651D
:1078B000BC551A4D194D1A55F94CBB7D7FD7FFF7B2
:1078C000FFF7FFF7FFFFFFFFFFFFFFFFFFFFFFFFD8
:1078D000DFFFFFFF1AEF36D619F7DCFFDCFF7AFF78
:1078E000D6FEB5F674EE95E658FFFBFFFBFFBBFF37
:1078F000B7EE77DE5BF7FFFFFFFFDFFFBEFFFFFFA7
:10790000FFFFFFFFFFFFFFFFFFFFDFF7BFE79FD78F
:107910001EB73B8E996D395DF94CDA4CFB4CFB4C34
:107920001B4D3B4D5C451B3D1B3DD93CD944FA44A6
:10793000DB44BB3CBC34BC3C783CD75C7BA6FFEF53
:10794000FFFFFFFFFFFFFFFFFFFFFFFFFFFFFFFF47
:10795000FFFFFFFFFFFFFFFFFFFFFFFFFFFFFFFF37
:10796000FFFFFFFFFFFFFFFFFFFFFFFFFFFFFFFF27
:10797000FFFFFFFFFFFFFFFFFFFFFFFFFFFFFFFF17
:10798000FFFFDFFFFFFFFFFFFFFFFFEF5FC7FB8D85
:107990009B755A5DDC65BB655965997D5BA6FFE704
:1079A000FFF7FFF7BDBE9A8D5A6D5B5D9B5DBC5DB9
:1079B0009B555A4D5B551A4D1A4D195D5BA6FFEF4D
:1079C000FFF7FFFFFFFFFFFFFFFFFFFFFFFFFFFFCF
:1079D000FFFFDEFF9DFF7CF7DDFFFDFF5AFF76EE28
:1079E000B1DDD1DDD1D5B1CDD2CD96E65AFFFDFFC7
:1079F000DCFF9CF7BDFFFFFFDFFFFFFFDFFFFFFFA7
:107A0000FFFFFFFFDFFFDFFFDFFFFFFFFFFFFFF7EE
